{
  "contractName": "CarManager",
  "abi": [
    {
      "inputs": [
        {
          "internalType": "address",
          "name": "authorizerContractAddress",
          "type": "address"
        },
        {
          "internalType": "address",
          "name": "carTokenContractAddress",
          "type": "address"
        }
      ],
      "stateMutability": "nonpayable",
      "type": "constructor"
    },
    {
      "anonymous": false,
      "inputs": [
        {
          "indexed": true,
          "internalType": "uint256",
          "name": "carID",
          "type": "uint256"
        }
      ],
      "name": "CarAdded",
      "type": "event"
    },
    {
      "anonymous": false,
      "inputs": [
        {
          "indexed": true,
          "internalType": "uint256",
          "name": "carID",
          "type": "uint256"
        }
      ],
      "name": "CarStateUpdated",
      "type": "event"
    },
    {
      "anonymous": false,
      "inputs": [
        {
          "indexed": true,
          "internalType": "uint256",
          "name": "carID",
          "type": "uint256"
        }
      ],
      "name": "ITVInspection",
      "type": "event"
    },
    {
      "inputs": [],
      "name": "carToken",
      "outputs": [
        {
          "internalType": "contract ICarAsset",
          "name": "",
          "type": "address"
        }
      ],
      "stateMutability": "view",
      "type": "function",
      "constant": true
    },
    {
      "inputs": [],
      "name": "owner",
      "outputs": [
        {
          "internalType": "address",
          "name": "",
          "type": "address"
        }
      ],
      "stateMutability": "view",
      "type": "function",
      "constant": true
    },
    {
      "inputs": [
        {
          "internalType": "string",
          "name": "carId",
          "type": "string"
        },
        {
          "internalType": "string",
          "name": "licensePlate",
          "type": "string"
        },
        {
          "internalType": "uint256",
          "name": "carTypeIndex",
          "type": "uint256"
        }
      ],
      "name": "addCar",
      "outputs": [],
      "stateMutability": "nonpayable",
      "type": "function"
    },
    {
      "inputs": [
        {
          "internalType": "uint256",
          "name": "id",
          "type": "uint256"
        },
        {
          "internalType": "uint256",
          "name": "carStateIndex",
          "type": "uint256"
        }
      ],
      "name": "updateCarState",
      "outputs": [],
      "stateMutability": "nonpayable",
      "type": "function"
    },
    {
      "inputs": [
        {
          "internalType": "uint256",
          "name": "carId",
          "type": "uint256"
        }
      ],
      "name": "getCar",
      "outputs": [
        {
          "internalType": "uint256",
          "name": "ID",
          "type": "uint256"
        },
        {
          "internalType": "string",
          "name": "licensePlate",
          "type": "string"
        },
        {
          "internalType": "uint256",
          "name": "carType",
          "type": "uint256"
        },
        {
          "internalType": "uint256",
          "name": "carState",
          "type": "uint256"
        }
      ],
      "stateMutability": "view",
      "type": "function",
      "constant": true
    }
  ],
  "bytecode": "0x608060405234801561001057600080fd5b50604051610dbf380380610dbf8339818101604052604081101561003357600080fd5b810190808051906020019092919080519060200190929190505050818133600260006101000a81548173ffffffffffffffffffffffffffffffffffffffff021916908373ffffffffffffffffffffffffffffffffffffffff160217905550816000806101000a81548173ffffffffffffffffffffffffffffffffffffffff021916908373ffffffffffffffffffffffffffffffffffffffff16021790555080600160006101000a81548173ffffffffffffffffffffffffffffffffffffffff021916908373ffffffffffffffffffffffffffffffffffffffff16021790555050505050610c9a806101256000396000f3fe608060405234801561001057600080fd5b50600436106100575760003560e01c806305574ee91461005c5780635d3fe863146101345780635e8be1901461016c5780638da5cb5b14610228578063d530bf3314610272575b600080fd5b6101326004803603606081101561007257600080fd5b810190808035906020019064010000000081111561008f57600080fd5b8201836020820111156100a157600080fd5b803590602001918460018302840111640100000000831117156100c357600080fd5b9091929391929390803590602001906401000000008111156100e457600080fd5b8201836020820111156100f657600080fd5b8035906020019184600183028401116401000000008311171561011857600080fd5b9091929391929390803590602001909291905050506102bc565b005b61016a6004803603604081101561014a57600080fd5b81019080803590602001909291908035906020019092919050505061073d565b005b6101986004803603602081101561018257600080fd5b81019080803590602001909291905050506109db565b6040518085815260200180602001848152602001838152602001828103825285818151815260200191508051906020019080838360005b838110156101ea5780820151818401526020810190506101cf565b50505050905090810190601f1680156102175780820380516001836020036101000a031916815260200191505b509550505050505060405180910390f35b610230610b3c565b604051808273ffffffffffffffffffffffffffffffffffffffff1673ffffffffffffffffffffffffffffffffffffffff16815260200191505060405180910390f35b61027a610b62565b604051808273ffffffffffffffffffffffffffffffffffffffff1673ffffffffffffffffffffffffffffffffffffffff16815260200191505060405180910390f35b6040518060400160405280601d81526020017f61646443617228737472696e672c737472696e672c75696e74323536290000008152503360008060009054906101000a900473ffffffffffffffffffffffffffffffffffffffff1673ffffffffffffffffffffffffffffffffffffffff1663a14a68d33085856040518463ffffffff1660e01b8152600401808473ffffffffffffffffffffffffffffffffffffffff1673ffffffffffffffffffffffffffffffffffffffff168152602001806020018373ffffffffffffffffffffffffffffffffffffffff1673ffffffffffffffffffffffffffffffffffffffff168152602001828103825284818151815260200191508051906020019080838360005b838110156103e85780820151818401526020810190506103cd565b50505050905090810190601f1680156104155780820380516001836020036101000a031916815260200191505b5094505050505060206040518083038186803b15801561043457600080fd5b505afa158015610448573d6000803e3d6000fd5b505050506040513d602081101561045e57600080fd5b81019080805190602001909291905050509050806104e4576040517f08c379a000000000000000000000000000000000000000000000000000000000815260040180806020018281038252600c8152602001807f556e617574686f72697a6564000000000000000000000000000000000000000081525060200191505060405180910390fd5b6000888860405160200180806020018281038252848482818152602001925080828437600081840152601f19601f82011690508083019250505093505050506040516020818303038152906040528051906020012060001c9050600160009054906101000a900473ffffffffffffffffffffffffffffffffffffffff1673ffffffffffffffffffffffffffffffffffffffff166340c10f1933836040518363ffffffff1660e01b8152600401808373ffffffffffffffffffffffffffffffffffffffff1673ffffffffffffffffffffffffffffffffffffffff16815260200182815260200192505050600060405180830381600087803b1580156105e757600080fd5b505af11580156105fb573d6000803e3d6000fd5b50505050604051806060016040528088888080601f016020809104026020016040519081016040528093929190818152602001838380828437600081840152601f19601f82011690508083019250505050505050815260200186600581111561066057fe5b600581111561066b57fe5b81526020016001600581111561067d57fe5b8152506003600083815260200190815260200160002060008201518160000190805190602001906106af929190610b88565b5060208201518160010160006101000a81548160ff021916908360058111156106d457fe5b021790555060408201518160010160016101000a81548160ff021916908360058111156106fd57fe5b0217905550905050807ff2df0bf0a874af139f49fc333240e92f4eb6c66d66b2acd52257d70dcc6426d860405160405180910390a2505050505050505050565b6040518060400160405280601f81526020017f75706461746543617253746174652875696e743235362c75696e7432353629008152503360008060009054906101000a900473ffffffffffffffffffffffffffffffffffffffff1673ffffffffffffffffffffffffffffffffffffffff1663a14a68d33085856040518463ffffffff1660e01b8152600401808473ffffffffffffffffffffffffffffffffffffffff1673ffffffffffffffffffffffffffffffffffffffff168152602001806020018373ffffffffffffffffffffffffffffffffffffffff1673ffffffffffffffffffffffffffffffffffffffff168152602001828103825284818151815260200191508051906020019080838360005b8381101561086957808201518184015260208101905061084e565b50505050905090810190601f1680156108965780820380516001836020036101000a031916815260200191505b5094505050505060206040518083038186803b1580156108b557600080fd5b505afa1580156108c9573d6000803e3d6000fd5b505050506040513d60208110156108df57600080fd5b8101908080519060200190929190505050905080610965576040517f08c379a000000000000000000000000000000000000000000000000000000000815260040180806020018281038252600c8152602001807f556e617574686f72697a6564000000000000000000000000000000000000000081525060200191505060405180910390fd5b83600581111561097157fe5b6003600087815260200190815260200160002060010160016101000a81548160ff021916908360058111156109a257fe5b0217905550847f3cf28009f84f5f184138019eb1ddcc7aa6499a65d9ec7aebebed6994ad79df3560405160405180910390a25050505050565b600060606000806109ea610c08565b60036000878152602001908152602001600020604051806060016040529081600082018054600181600116156101000203166002900480601f016020809104026020016040519081016040528092919081815260200182805460018160011615610100020316600290048015610aa15780601f10610a7657610100808354040283529160200191610aa1565b820191906000526020600020905b815481529060010190602001808311610a8457829003601f168201915b505050505081526020016001820160009054906101000a900460ff166005811115610ac857fe5b6005811115610ad357fe5b81526020016001820160019054906101000a900460ff166005811115610af557fe5b6005811115610b0057fe5b81525050905085816000015182602001516005811115610b1c57fe5b83604001516005811115610b2c57fe5b9450945094509450509193509193565b600260009054906101000a900473ffffffffffffffffffffffffffffffffffffffff1681565b600160009054906101000a900473ffffffffffffffffffffffffffffffffffffffff1681565b828054600181600116156101000203166002900490600052602060002090601f016020900481019282601f10610bc957805160ff1916838001178555610bf7565b82800160010185558215610bf7579182015b82811115610bf6578251825591602001919060010190610bdb565b5b509050610c049190610c3f565b5090565b60405180606001604052806060815260200160006005811115610c2757fe5b815260200160006005811115610c3957fe5b81525090565b610c6191905b80821115610c5d576000816000905550600101610c45565b5090565b9056fea2646970667358221220a9100f9e554a0f4d9d9cdf05964c437984f1ecdf4f18e7ce72223863332f4a4464736f6c63430006060033",
  "immutableReferences": {},
  "source": "pragma solidity >=0.5.16;\n\nimport \"./interfaces/CarInterface.sol\";\nimport \"./Authorizer.sol\";\nimport \"./BaseManager.sol\";\n\n\ncontract CarManager is BaseManager {\n    string constant ADD_CAR_METHOD = \"addCar(string,string,uint256)\";\n    string constant UPDATE_CAR_METHOD = \"updateCarState(uint256,uint256)\";\n    /*\n     * At the moment this state adds nothing to the contract - it doesn't give the users relevant information,\n     * and it doesn't modify functions. We must update this to include relevant information or remove it.\n     */\n    enum CarState {\n        SHIPPED,\n        FOR_SALE,\n        PROCESSING_SALE,\n        SOLD,\n        PROCESSING_REGISTER,\n        REGISTERED\n    }\n\n    /*\n     * Permit type or car type is related to the ITV - inspection intervals are determined by this variable\n     * We must look into the `legal` types of vehicles and permits\n     */\n    enum CarType {\n        TWO_WHEEL,\n        THREE_WHEEL,\n        FOUR_WHEEL,\n        HEAVY,\n        AGRICULTURE,\n        SERVICE\n    }\n\n    struct Car {\n        string licensePlate;\n        CarType carType;\n        CarState carState;\n    }\n\n    mapping(uint256 => Car) trackedCars;\n    uint256[] registeredCars;\n\n    event CarAdded(uint256 indexed carID); // probably we need carOwner's address in the event\n    event CarStateUpdated(uint256 indexed carID);\n    event ITVInspection(uint256 indexed carID);\n\n    constructor(\n        address authorizerContractAddress,\n        address carTokenContractAddress\n    ) public\n        BaseManager(authorizerContractAddress, carTokenContractAddress)\n    {}\n\n    function addCar(\n        string calldata carId,\n        string calldata licensePlate,\n        uint256 carTypeIndex\n    ) external onlyAuthorized(ADD_CAR_METHOD, msg.sender) {\n        uint256 id = uint256(keccak256(abi.encode(carId)));\n\n        carToken.mint(msg.sender, id);\n\n        trackedCars[id] = Car({\n            licensePlate: licensePlate,\n            carType: CarType(carTypeIndex),\n            carState: CarState.FOR_SALE\n        });\n\n        emit CarAdded(id);\n    }\n\n    function updateCarState(uint256 id, uint256 carStateIndex)\n        external\n        onlyAuthorized(UPDATE_CAR_METHOD, msg.sender)\n    {\n        trackedCars[id].carState = CarState(carStateIndex);\n\n        emit CarStateUpdated(id);\n    }\n\n    function getCar(uint256 carId)\n        external\n        view\n        returns (\n            uint256 ID,\n            string memory licensePlate,\n            uint256 carType,\n            uint256 carState\n        )\n    {\n        Car memory car = trackedCars[carId];\n\n        return (\n            carId,\n            car.licensePlate,\n            uint256(car.carType),\n            uint256(car.carState)\n        );\n    }\n}\n",
  "sourcePath": "/home/rekard0/Documents/WORK/project_master/car-chain/flutter-app/carchain/contracts/CarManager.sol",
  "compiler": {
    "name": "solc",
    "version": "0.6.6+commit.6c089d02.Emscripten.clang"
  },
  "schemaVersion": "3.2.5",
  "updatedAt": "2020-09-26T02:17:08.954Z",
  "networkType": "ethereum",
  "devdoc": {
    "methods": {}
  },
  "userdoc": {
    "methods": {}
  }
}