{
  "contractName": "SimpleStorage",
  "abi": [
    {
      "inputs": [
        {
          "name": "initialValue",
          "type": "uint256"
        }
      ],
      "payable": false,
      "stateMutability": "nonpayable",
      "type": "constructor"
    },
    {
      "constant": false,
      "inputs": [
        {
          "name": "value",
          "type": "uint256"
        }
      ],
      "name": "storeValue",
      "outputs": [],
      "payable": false,
      "stateMutability": "nonpayable",
      "type": "function"
    },
    {
      "constant": true,
      "inputs": [
        {
          "name": "index",
          "type": "uint256"
        }
      ],
      "name": "getValue",
      "outputs": [
        {
          "name": "valaue",
          "type": "uint256"
        }
      ],
      "payable": false,
      "stateMutability": "view",
      "type": "function"
    }
  ],
  "bytecode": "0x608060405234801561001057600080fd5b506040516020806101988339810180604052602081101561003057600080fd5b810190808051906020019092919050505060008190806001815401808255809150509060018203906000526020600020016000909192909190915055505061011b8061007d6000396000f3fe6080604052348015600f57600080fd5b506004361060325760003560e01c80630ff4c9161460375780637221a26a146076575b600080fd5b606060048036036020811015604b57600080fd5b810190808035906020019092919050505060a1565b6040518082815260200191505060405180910390f35b609f60048036036020811015608a57600080fd5b810190808035906020019092919050505060c0565b005b600080828154811060ae57fe5b90600052602060002001549050919050565b60008190806001815401808255809150509060018203906000526020600020016000909192909190915055505056fea165627a7a723058206dbb761f671d859135c805f8d02fc614047be819bbae04775349094ac3bb43200029",
  "source": "pragma solidity<0.6.0;\n\ncontract SimpleStorage {\n    uint[] store;\n\n    constructor (uint initialValue) public {\n        store.push(initialValue);\n    }\n\n    function storeValue(uint value) public {\n        store.push(value);\n    }\n\n    function getValue(uint index)\n        public\n        view\n        returns (uint valaue)\n    {\n        return store[index];\n    }\n}\n",
  "sourcePath": "/Users/alex/workspace/car-chain/blockchain/contracts/SimpleStorage.sol",
  "compiler": {
    "name": "solc",
    "version": "0.5.8+commit.23d335f2.Emscripten.clang"
  },
  "schemaVersion": "3.0.13",
  "updatedAt": "2020-04-27T19:18:20.294Z",
  "devdoc": {
    "methods": {}
  },
  "userdoc": {
    "methods": {}
  }
}