{
  "contractName": "CarManager",
  "abi": [
    {
      "inputs": [],
      "payable": false,
      "stateMutability": "nonpayable",
      "type": "constructor"
    },
    {
      "anonymous": false,
      "inputs": [
        {
          "indexed": false,
          "internalType": "bytes32",
          "name": "carID",
          "type": "bytes32"
        },
        {
          "indexed": false,
          "internalType": "uint256",
          "name": "date",
          "type": "uint256"
        }
      ],
      "name": "CarAdded",
      "type": "event"
    },
    {
      "anonymous": false,
      "inputs": [
        {
          "indexed": false,
          "internalType": "bytes32",
          "name": "carID",
          "type": "bytes32"
        },
        {
          "indexed": false,
          "internalType": "uint256",
          "name": "date",
          "type": "uint256"
        }
      ],
      "name": "ITVInspection",
      "type": "event"
    },
    {
      "constant": true,
      "inputs": [
        {
          "internalType": "address",
          "name": "",
          "type": "address"
        }
      ],
      "name": "ITVAuthorities",
      "outputs": [
        {
          "internalType": "bool",
          "name": "",
          "type": "bool"
        }
      ],
      "payable": false,
      "stateMutability": "view",
      "type": "function"
    },
    {
      "constant": true,
      "inputs": [
        {
          "internalType": "address",
          "name": "",
          "type": "address"
        }
      ],
      "name": "auhtorizedShops",
      "outputs": [
        {
          "internalType": "bool",
          "name": "",
          "type": "bool"
        }
      ],
      "payable": false,
      "stateMutability": "view",
      "type": "function"
    },
    {
      "constant": true,
      "inputs": [
        {
          "internalType": "address",
          "name": "",
          "type": "address"
        }
      ],
      "name": "brands",
      "outputs": [
        {
          "internalType": "bool",
          "name": "",
          "type": "bool"
        }
      ],
      "payable": false,
      "stateMutability": "view",
      "type": "function"
    },
    {
      "constant": true,
      "inputs": [],
      "name": "root",
      "outputs": [
        {
          "internalType": "address",
          "name": "",
          "type": "address"
        }
      ],
      "payable": false,
      "stateMutability": "view",
      "type": "function"
    },
    {
      "constant": false,
      "inputs": [
        {
          "internalType": "address",
          "name": "brandID",
          "type": "address"
        }
      ],
      "name": "addBrand",
      "outputs": [],
      "payable": false,
      "stateMutability": "nonpayable",
      "type": "function"
    },
    {
      "constant": false,
      "inputs": [
        {
          "internalType": "address",
          "name": "brandID",
          "type": "address"
        }
      ],
      "name": "deleteBrand",
      "outputs": [],
      "payable": false,
      "stateMutability": "nonpayable",
      "type": "function"
    },
    {
      "constant": false,
      "inputs": [
        {
          "internalType": "address",
          "name": "ItvID",
          "type": "address"
        }
      ],
      "name": "addITV",
      "outputs": [],
      "payable": false,
      "stateMutability": "nonpayable",
      "type": "function"
    },
    {
      "constant": false,
      "inputs": [
        {
          "internalType": "address",
          "name": "ItvID",
          "type": "address"
        }
      ],
      "name": "deleteITV",
      "outputs": [],
      "payable": false,
      "stateMutability": "nonpayable",
      "type": "function"
    },
    {
      "constant": false,
      "inputs": [
        {
          "internalType": "bytes",
          "name": "carID",
          "type": "bytes"
        },
        {
          "internalType": "string",
          "name": "licensePlate",
          "type": "string"
        },
        {
          "internalType": "uint256",
          "name": "carTypeIndex",
          "type": "uint256"
        }
      ],
      "name": "addCar",
      "outputs": [],
      "payable": false,
      "stateMutability": "nonpayable",
      "type": "function"
    },
    {
      "constant": false,
      "inputs": [
        {
          "internalType": "bytes",
          "name": "ID",
          "type": "bytes"
        },
        {
          "internalType": "uint256",
          "name": "carStateIndex",
          "type": "uint256"
        }
      ],
      "name": "updateCarState",
      "outputs": [],
      "payable": false,
      "stateMutability": "nonpayable",
      "type": "function"
    },
    {
      "constant": false,
      "inputs": [
        {
          "internalType": "bytes",
          "name": "ID",
          "type": "bytes"
        },
        {
          "internalType": "uint256",
          "name": "itvStateIndex",
          "type": "uint256"
        }
      ],
      "name": "updateITV",
      "outputs": [],
      "payable": false,
      "stateMutability": "nonpayable",
      "type": "function"
    },
    {
      "constant": true,
      "inputs": [
        {
          "internalType": "bytes",
          "name": "carID",
          "type": "bytes"
        }
      ],
      "name": "getCar",
      "outputs": [
        {
          "internalType": "bytes32",
          "name": "ID",
          "type": "bytes32"
        },
        {
          "internalType": "uint256",
          "name": "creationBlock",
          "type": "uint256"
        },
        {
          "internalType": "address",
          "name": "ownerID",
          "type": "address"
        },
        {
          "internalType": "string",
          "name": "licensePlate",
          "type": "string"
        },
        {
          "internalType": "uint256",
          "name": "permitType",
          "type": "uint256"
        },
        {
          "internalType": "uint256",
          "name": "itvState",
          "type": "uint256"
        },
        {
          "internalType": "uint256",
          "name": "lastInspection",
          "type": "uint256"
        }
      ],
      "payable": false,
      "stateMutability": "view",
      "type": "function"
    }
  ],
  "bytecode": "0x608060405234801561001057600080fd5b50336000806101000a81548173ffffffffffffffffffffffffffffffffffffffff021916908373ffffffffffffffffffffffffffffffffffffffff16021790555061159d806100606000396000f3fe608060405234801561001057600080fd5b50600436106100b45760003560e01c80637e3c2f83116100715780637e3c2f831461044857806395aea5df1461048c578063b12bdfd4146105e8578063ddaeec7b1461062c578063ebf0c71714610688578063feb7450f146106d2576100b4565b806320d86bc7146100b957806328756d5414610243578063370720721461029f5780634d378655146102e357806358aa5b2b146103a85780635b7fd9b5146103ec575b600080fd5b610172600480360360208110156100cf57600080fd5b81019080803590602001906401000000008111156100ec57600080fd5b8201836020820111156100fe57600080fd5b8035906020019184600183028401116401000000008311171561012057600080fd5b91908080601f016020809104026020016040519081016040528093929190818152602001838380828437600081840152601f19601f820116905080830192505050505050509192919290505050610797565b604051808881526020018781526020018673ffffffffffffffffffffffffffffffffffffffff1673ffffffffffffffffffffffffffffffffffffffff16815260200180602001858152602001848152602001838152602001828103825286818151815260200191508051906020019080838360005b838110156102025780820151818401526020810190506101e7565b50505050905090810190601f16801561022f5780820380516001836020036101000a031916815260200191505b509850505050505050505060405180910390f35b6102856004803603602081101561025957600080fd5b81019080803573ffffffffffffffffffffffffffffffffffffffff1690602001909291905050506109f8565b604051808215151515815260200191505060405180910390f35b6102e1600480360360208110156102b557600080fd5b81019080803573ffffffffffffffffffffffffffffffffffffffff169060200190929190505050610a18565b005b6103a6600480360360408110156102f957600080fd5b810190808035906020019064010000000081111561031657600080fd5b82018360208201111561032857600080fd5b8035906020019184600183028401116401000000008311171561034a57600080fd5b91908080601f016020809104026020016040519081016040528093929190818152602001838380828437600081840152601f19601f82011690508083019250505050505050919291929080359060200190929190505050610b35565b005b6103ea600480360360208110156103be57600080fd5b81019080803573ffffffffffffffffffffffffffffffffffffffff169060200190929190505050610ca8565b005b61042e6004803603602081101561040257600080fd5b81019080803573ffffffffffffffffffffffffffffffffffffffff169060200190929190505050610dc4565b604051808215151515815260200191505060405180910390f35b61048a6004803603602081101561045e57600080fd5b81019080803573ffffffffffffffffffffffffffffffffffffffff169060200190929190505050610de4565b005b6105e6600480360360608110156104a257600080fd5b81019080803590602001906401000000008111156104bf57600080fd5b8201836020820111156104d157600080fd5b803590602001918460018302840111640100000000831117156104f357600080fd5b91908080601f016020809104026020016040519081016040528093929190818152602001838380828437600081840152601f19601f8201169050808301925050505050505091929192908035906020019064010000000081111561055657600080fd5b82018360208201111561056857600080fd5b8035906020019184600183028401116401000000008311171561058a57600080fd5b91908080601f016020809104026020016040519081016040528093929190818152602001838380828437600081840152601f19601f82011690508083019250505050505050919291929080359060200190929190505050610f01565b005b61062a600480360360208110156105fe57600080fd5b81019080803573ffffffffffffffffffffffffffffffffffffffff1690602001909291905050506111ab565b005b61066e6004803603602081101561064257600080fd5b81019080803573ffffffffffffffffffffffffffffffffffffffff1690602001909291905050506112c8565b604051808215151515815260200191505060405180910390f35b6106906112e8565b604051808273ffffffffffffffffffffffffffffffffffffffff1673ffffffffffffffffffffffffffffffffffffffff16815260200191505060405180910390f35b610795600480360360408110156106e857600080fd5b810190808035906020019064010000000081111561070557600080fd5b82018360208201111561071757600080fd5b8035906020019184600183028401116401000000008311171561073957600080fd5b91908080601f016020809104026020016040519081016040528093929190818152602001838380828437600081840152601f19601f8201169050808301925050505050505091929192908035906020019092919050505061130d565b005b60008060006060600080600080888051906020012090506107b6611409565b600260008381526020019081526020016000206040518060e001604052908160008201548152602001600182015481526020016002820160009054906101000a900473ffffffffffffffffffffffffffffffffffffffff1673ffffffffffffffffffffffffffffffffffffffff1673ffffffffffffffffffffffffffffffffffffffff168152602001600382018054600181600116156101000203166002900480601f0160208091040260200160405190810160405280929190818152602001828054600181600116156101000203166002900480156108d75780601f106108ac576101008083540402835291602001916108d7565b820191906000526020600020905b8154815290600101906020018083116108ba57829003601f168201915b505050505081526020016004820160009054906101000a900460ff1660058111156108fe57fe5b600581111561090957fe5b81526020016004820160019054906101000a900460ff16600581111561092b57fe5b600581111561093657fe5b8152602001600582016040518060400160405290816000820160009054906101000a900460ff16600281111561096857fe5b600281111561097357fe5b81526020016001820154815250508152505090508060000151985088816020015198508882604001519850888360600151985088846080015160058111156109b757fe5b9850888560c001516000015160028111156109ce57fe5b9850888660c001516020015198508898509850985098509850985098505050919395979092949650565b60036020528060005260406000206000915054906101000a900460ff1681565b6000809054906101000a900473ffffffffffffffffffffffffffffffffffffffff1673ffffffffffffffffffffffffffffffffffffffff163373ffffffffffffffffffffffffffffffffffffffff1614610ada576040517f08c379a000000000000000000000000000000000000000000000000000000000815260040180806020018281038252601b8152602001807f4f6e6c7920726f6f742063616e206d616e616765206272616e6473000000000081525060200191505060405180910390fd5b6000600460008373ffffffffffffffffffffffffffffffffffffffff1673ffffffffffffffffffffffffffffffffffffffff16815260200190815260200160002060006101000a81548160ff02191690831515021790555050565b60011515600460003373ffffffffffffffffffffffffffffffffffffffff1673ffffffffffffffffffffffffffffffffffffffff16815260200190815260200160002060009054906101000a900460ff16151514610bfb576040517f08c379a00000000000000000000000000000000000000000000000000000000081526004018080602001828103825260208152602001807f4f6e6c79204954562063616e20706572666f726d207468697320616374696f6e81525060200191505060405180910390fd5b60008280519060200120905060006002600083815260200190815260200160002090506000429050836002811115610c2f57fe5b8260050160000160006101000a81548160ff02191690836002811115610c5157fe5b02179055508082600501600101819055507f1117001f1a7b8a526188d9bca8b42cd75234da1b298bb0a3160dc086b145333e8382604051808381526020018281526020019250505060405180910390a15050505050565b6000809054906101000a900473ffffffffffffffffffffffffffffffffffffffff1673ffffffffffffffffffffffffffffffffffffffff163373ffffffffffffffffffffffffffffffffffffffff1614610d6a576040517f08c379a000000000000000000000000000000000000000000000000000000000815260040180806020018281038252601b8152602001807f4f6e6c7920726f6f742063616e206d616e616765206272616e6473000000000081525060200191505060405180910390fd5b60018060008373ffffffffffffffffffffffffffffffffffffffff1673ffffffffffffffffffffffffffffffffffffffff16815260200190815260200160002060006101000a81548160ff02191690831515021790555050565b60016020528060005260406000206000915054906101000a900460ff1681565b6000809054906101000a900473ffffffffffffffffffffffffffffffffffffffff1673ffffffffffffffffffffffffffffffffffffffff163373ffffffffffffffffffffffffffffffffffffffff1614610ea6576040517f08c379a000000000000000000000000000000000000000000000000000000000815260040180806020018281038252601b8152602001807f4f6e6c7920726f6f742063616e206d616e616765206272616e6473000000000081525060200191505060405180910390fd5b6001600460008373ffffffffffffffffffffffffffffffffffffffff1673ffffffffffffffffffffffffffffffffffffffff16815260200190815260200160002060006101000a81548160ff02191690831515021790555050565b60011515600160003373ffffffffffffffffffffffffffffffffffffffff1673ffffffffffffffffffffffffffffffffffffffff16815260200190815260200160002060009054906101000a900460ff16151514610faa576040517f08c379a00000000000000000000000000000000000000000000000000000000081526004018080602001828103825260238152602001806115466023913960400191505060405180910390fd5b60004390506000848051906020012090506040518060e001604052808281526020018381526020013373ffffffffffffffffffffffffffffffffffffffff16815260200185815260200184600581111561100057fe5b600581111561100b57fe5b81526020016001600581111561101d57fe5b815260200160405180604001604052806000600281111561103a57fe5b8152602001600081525081525060026000838152602001908152602001600020600082015181600001556020820151816001015560408201518160020160006101000a81548173ffffffffffffffffffffffffffffffffffffffff021916908373ffffffffffffffffffffffffffffffffffffffff16021790555060608201518160030190805190602001906110d192919061147b565b5060808201518160040160006101000a81548160ff021916908360058111156110f657fe5b021790555060a08201518160040160016101000a81548160ff0219169083600581111561111f57fe5b021790555060c08201518160050160008201518160000160006101000a81548160ff0219169083600281111561115157fe5b02179055506020820151816001015550509050507f4a2a2d7039e091da713f76b2ffac5166a367a618a72a32c0682eebee8b0fb8328183604051808381526020018281526020019250505060405180910390a15050505050565b6000809054906101000a900473ffffffffffffffffffffffffffffffffffffffff1673ffffffffffffffffffffffffffffffffffffffff163373ffffffffffffffffffffffffffffffffffffffff161461126d576040517f08c379a000000000000000000000000000000000000000000000000000000000815260040180806020018281038252601b8152602001807f4f6e6c7920726f6f742063616e206d616e616765206272616e6473000000000081525060200191505060405180910390fd5b6000600160008373ffffffffffffffffffffffffffffffffffffffff1673ffffffffffffffffffffffffffffffffffffffff16815260200190815260200160002060006101000a81548160ff02191690831515021790555050565b60046020528060005260406000206000915054906101000a900460ff1681565b6000809054906101000a900473ffffffffffffffffffffffffffffffffffffffff1681565b60011515600160003373ffffffffffffffffffffffffffffffffffffffff1673ffffffffffffffffffffffffffffffffffffffff16815260200190815260200160002060009054906101000a900460ff161515146113b6576040517f08c379a00000000000000000000000000000000000000000000000000000000081526004018080602001828103825260238152602001806115466023913960400191505060405180910390fd5b6000828051906020012090508160058111156113ce57fe5b6002600083815260200190815260200160002060040160016101000a81548160ff021916908360058111156113ff57fe5b0217905550505050565b6040518060e001604052806000801916815260200160008152602001600073ffffffffffffffffffffffffffffffffffffffff168152602001606081526020016000600581111561145657fe5b81526020016000600581111561146857fe5b81526020016114756114fb565b81525090565b828054600181600116156101000203166002900490600052602060002090601f016020900481019282601f106114bc57805160ff19168380011785556114ea565b828001600101855582156114ea579182015b828111156114e95782518255916020019190600101906114ce565b5b5090506114f79190611520565b5090565b60405180604001604052806000600281111561151357fe5b8152602001600081525090565b61154291905b8082111561153e576000816000905550600101611526565b5090565b9056fe4f6e6c7920616374697665206272616e642063616e206164642061206e657720636172a265627a7a72315820b58ada20689410ba5e769295d95f2aed31c7de01b4c7a10ab4f29e0333ed84ac64736f6c63430005100032",
  "source": "pragma solidity >=0.5.16;\n\n\ncontract CarManager {\n    address public root;\n\n    mapping(address => bool) public brands; // now is dealership\n\n    mapping(bytes32 => Car) trackedCars;\n\n    mapping(address => bool) public auhtorizedShops; // now is mechanic\n\n    mapping(address => bool) public ITVAuthorities;\n\n    /*\n     * Permit type or car type is related to the ITV - inspection intervals are determined by this variable\n     * We must look into the `legal` types of vehicles and permits\n     */\n    enum CarType {\n        TWO_WHEEL,\n        THREE_WHEEL,\n        FOUR_WHEEL,\n        HEAVY,\n        AGRICULTURE,\n        SERVICE\n    }\n\n    /*\n     * At the moment this state adds nothing to the contract - it doesn't give the users relevant information,\n     * and it doesn't modify functions. We must update this to include relevant information or remove it.\n     */\n    enum CarState {\n        SHIPPED,\n        FOR_SALE,\n        PROCESSING_SALE,\n        SOLD,\n        PROCESSING_REGISTER,\n        REGISTERED\n    }\n\n    enum ITVState {PASSED, NOT_PASSED, NEGATIVE}\n\n    // What should the initial value of lastInspection be? How does the ITV manage this?\n    struct ITV {\n        ITVState state;\n        uint256 lastInspection;\n    }\n\n    struct Car {\n        bytes32 ID;\n        uint256 creationBlock;\n        address ownerID;\n        string licensePlate;\n        CarType _type;\n        CarState _state;\n        ITV itv;\n    }\n\n    event CarAdded(bytes32 carID, uint256 date);\n    event ITVInspection(bytes32 carID, uint256 date);\n\n    modifier onlyRoot() {\n        require(msg.sender == root, \"Only root can manage brands\");\n        _;\n    }\n\n    modifier onlyActiveBrand() {\n        require(\n            brands[msg.sender] == true,\n            \"Only active brand can add a new car\"\n        );\n        _;\n    }\n\n    modifier onlyITV() {\n        require(\n            ITVAuthorities[msg.sender] == true,\n            \"Only ITV can perform this action\"\n        );\n        _;\n    }\n\n    modifier onlyOwner(bytes memory carID) {\n        bytes32 _carID = keccak256(carID);\n        require(\n            msg.sender == trackedCars[_carID].ownerID,\n            \"Only car owner can perform this action\"\n        );\n        _;\n    }\n\n    constructor() public {\n        root = msg.sender;\n    }\n\n    function addBrand(address brandID) public onlyRoot {\n        brands[brandID] = true;\n    }\n\n    function deleteBrand(address brandID) public onlyRoot {\n        brands[brandID] = false;\n    }\n\n    function addITV(address ItvID) public onlyRoot {\n        ITVAuthorities[ItvID] = true;\n    }\n\n    function deleteITV(address ItvID) public onlyRoot {\n        ITVAuthorities[ItvID] = false;\n    }\n\n    function addCar(\n        bytes memory carID,\n        string memory licensePlate,\n        uint256 carTypeIndex\n    ) public onlyActiveBrand {\n        uint256 creationBlock = block.number;\n        bytes32 _ID = keccak256(carID);\n        trackedCars[_ID] = Car({\n            ID: _ID,\n            creationBlock: creationBlock,\n            ownerID: msg.sender,\n            licensePlate: licensePlate,\n            _type: CarType(carTypeIndex),\n            _state: CarState.FOR_SALE,\n            itv: ITV({state: ITVState.PASSED, lastInspection: 0})\n        });\n        emit CarAdded(_ID, creationBlock);\n    }\n\n    function updateCarState(bytes memory ID, uint256 carStateIndex)\n        public\n        onlyActiveBrand\n    {\n        bytes32 _ID = keccak256(ID);\n        trackedCars[_ID]._state = CarState(carStateIndex);\n    }\n\n    function updateITV(bytes memory ID, uint256 itvStateIndex) public onlyITV {\n        bytes32 _ID = keccak256(ID);\n        Car storage car = trackedCars[_ID];\n        uint256 date = now;\n        car.itv.state = ITVState(itvStateIndex);\n        car.itv.lastInspection = date;\n        emit ITVInspection(_ID, date);\n    }\n\n    function getCar(bytes memory carID)\n        public\n        view\n        returns (\n            bytes32 ID,\n            uint256 creationBlock,\n            address ownerID,\n            string memory licensePlate,\n            uint256 permitType,\n            uint256 itvState,\n            uint256 lastInspection\n        )\n    {\n        bytes32 _carID = keccak256(carID);\n        Car memory car = trackedCars[_carID];\n        return (\n            ID = car.ID,\n            creationBlock = car.creationBlock,\n            ownerID = car.ownerID,\n            licensePlate = car.licensePlate,\n            permitType = uint256(car._type),\n            itvState = uint256(car.itv.state),\n            lastInspection = car.itv.lastInspection\n        );\n    }\n}\n",
  "sourcePath": "/home/rekard0/Documents/WORK/project_master/car-chain/flutter-app/carchain/contracts/CarManager.sol",
  "compiler": {
    "name": "solc",
    "version": "0.5.16+commit.9c3226ce.Emscripten.clang"
  },
  "schemaVersion": "3.2.3",
  "updatedAt": "2020-08-24T19:57:03.005Z",
  "networkType": "ethereum",
  "devdoc": {
    "methods": {}
  },
  "userdoc": {
    "methods": {}
  }
}