{
  "contractName": "CarTracker",
  "abi": [
    {
      "inputs": [
        {
          "internalType": "address",
          "name": "authorizerContractAddress",
          "type": "address"
        }
      ],
      "payable": false,
      "stateMutability": "nonpayable",
      "type": "constructor"
    },
    {
      "anonymous": false,
      "inputs": [
        {
          "indexed": true,
          "internalType": "bytes32",
          "name": "carID",
          "type": "bytes32"
        },
        {
          "indexed": false,
          "internalType": "uint256",
          "name": "date",
          "type": "uint256"
        }
      ],
      "name": "CarAdded",
      "type": "event"
    },
    {
      "anonymous": false,
      "inputs": [
        {
          "indexed": true,
          "internalType": "bytes32",
          "name": "carID",
          "type": "bytes32"
        },
        {
          "indexed": false,
          "internalType": "uint256",
          "name": "date",
          "type": "uint256"
        }
      ],
      "name": "CarStateUpdated",
      "type": "event"
    },
    {
      "anonymous": false,
      "inputs": [
        {
          "indexed": true,
          "internalType": "bytes32",
          "name": "carID",
          "type": "bytes32"
        },
        {
          "indexed": false,
          "internalType": "uint256",
          "name": "date",
          "type": "uint256"
        }
      ],
      "name": "ITVInspection",
      "type": "event"
    },
    {
      "constant": false,
      "inputs": [
        {
          "internalType": "bytes",
          "name": "carID",
          "type": "bytes"
        },
        {
          "internalType": "string",
          "name": "licensePlate",
          "type": "string"
        },
        {
          "internalType": "uint256",
          "name": "carTypeIndex",
          "type": "uint256"
        }
      ],
      "name": "addCar",
      "outputs": [],
      "payable": false,
      "stateMutability": "nonpayable",
      "type": "function"
    },
    {
      "constant": false,
      "inputs": [
        {
          "internalType": "bytes",
          "name": "ID",
          "type": "bytes"
        },
        {
          "internalType": "uint256",
          "name": "carStateIndex",
          "type": "uint256"
        }
      ],
      "name": "updateCarState",
      "outputs": [],
      "payable": false,
      "stateMutability": "nonpayable",
      "type": "function"
    },
    {
      "constant": false,
      "inputs": [
        {
          "internalType": "bytes",
          "name": "ID",
          "type": "bytes"
        },
        {
          "internalType": "uint256",
          "name": "itvStateIndex",
          "type": "uint256"
        }
      ],
      "name": "updateITV",
      "outputs": [],
      "payable": false,
      "stateMutability": "nonpayable",
      "type": "function"
    },
    {
      "constant": true,
      "inputs": [
        {
          "internalType": "bytes",
          "name": "carID",
          "type": "bytes"
        }
      ],
      "name": "getCar",
      "outputs": [
        {
          "internalType": "bytes32",
          "name": "ID",
          "type": "bytes32"
        },
        {
          "internalType": "uint256",
          "name": "creationBlock",
          "type": "uint256"
        },
        {
          "internalType": "address",
          "name": "ownerID",
          "type": "address"
        },
        {
          "internalType": "string",
          "name": "licensePlate",
          "type": "string"
        },
        {
          "internalType": "uint256",
          "name": "carType",
          "type": "uint256"
        },
        {
          "internalType": "uint256",
          "name": "carState",
          "type": "uint256"
        },
        {
          "internalType": "uint256",
          "name": "itvState",
          "type": "uint256"
        },
        {
          "internalType": "uint256",
          "name": "lastInspection",
          "type": "uint256"
        }
      ],
      "payable": false,
      "stateMutability": "view",
      "type": "function"
    }
  ],
  "bytecode": "0x608060405234801561001057600080fd5b5060405161124d38038061124d8339818101604052602081101561003357600080fd5b8101908080519060200190929190505050806000806101000a81548173ffffffffffffffffffffffffffffffffffffffff021916908373ffffffffffffffffffffffffffffffffffffffff160217905550506111b9806100946000396000f3fe608060405234801561001057600080fd5b506004361061004c5760003560e01c806320d86bc7146100515780634d378655146101a057806395aea5df14610223578063feb7450f146102fb575b600080fd5b6100c86004803603602081101561006757600080fd5b810190808035906020019064010000000081111561008457600080fd5b82018360208201111561009657600080fd5b803590602001918460018302840111640100000000831117156100b857600080fd5b909192939192939050505061037e565b604051808981526020018881526020018773ffffffffffffffffffffffffffffffffffffffff1673ffffffffffffffffffffffffffffffffffffffff16815260200180602001868152602001858152602001848152602001838152602001828103825287818151815260200191508051906020019080838360005b8381101561015e578082015181840152602081019050610143565b50505050905090810190601f16801561018b5780820380516001836020036101000a031916815260200191505b50995050505050505050505060405180910390f35b610221600480360360408110156101b657600080fd5b81019080803590602001906401000000008111156101d357600080fd5b8201836020820111156101e557600080fd5b8035906020019184600183028401116401000000008311171561020757600080fd5b90919293919293908035906020019092919050505061060f565b005b6102f96004803603606081101561023957600080fd5b810190808035906020019064010000000081111561025657600080fd5b82018360208201111561026857600080fd5b8035906020019184600183028401116401000000008311171561028a57600080fd5b9091929391929390803590602001906401000000008111156102ab57600080fd5b8201836020820111156102bd57600080fd5b803590602001918460018302840111640100000000831117156102df57600080fd5b9091929391929390803590602001909291905050506108f8565b005b61037c6004803603604081101561031157600080fd5b810190808035906020019064010000000081111561032e57600080fd5b82018360208201111561034057600080fd5b8035906020019184600183028401116401000000008311171561036257600080fd5b909192939192939080359060200190929190505050610d7a565b005b6000806000606060008060008060008a8a604051808383808284378083019250505092505050604051809103902090506103b6611048565b600160008381526020019081526020016000206040518060e001604052908160008201548152602001600182015481526020016002820160009054906101000a900473ffffffffffffffffffffffffffffffffffffffff1673ffffffffffffffffffffffffffffffffffffffff1673ffffffffffffffffffffffffffffffffffffffff168152602001600382018054600181600116156101000203166002900480601f0160208091040260200160405190810160405280929190818152602001828054600181600116156101000203166002900480156104d75780601f106104ac576101008083540402835291602001916104d7565b820191906000526020600020905b8154815290600101906020018083116104ba57829003601f168201915b505050505081526020016004820160009054906101000a900460ff1660058111156104fe57fe5b600581111561050957fe5b81526020016004820160019054906101000a900460ff16600581111561052b57fe5b600581111561053657fe5b8152602001600582016040518060400160405290816000820160009054906101000a900460ff16600281111561056857fe5b600281111561057357fe5b81526020016001820154815250508152505090508060000151995089816020015199508982604001519950898360600151995089846080015160058111156105b757fe5b9950898560a0015160058111156105ca57fe5b9950898660c001516000015160028111156105e157fe5b9950898760c00151602001519950899950995099509950995099509950995050509295985092959890939650565b6040518060400160405280601881526020017f7570646174654954562862797465732c75696e743235362900000000000000008152503360008060009054906101000a900473ffffffffffffffffffffffffffffffffffffffff1673ffffffffffffffffffffffffffffffffffffffff1663a14a68d33085856040518463ffffffff1660e01b8152600401808473ffffffffffffffffffffffffffffffffffffffff1673ffffffffffffffffffffffffffffffffffffffff168152602001806020018373ffffffffffffffffffffffffffffffffffffffff1673ffffffffffffffffffffffffffffffffffffffff168152602001828103825284818151815260200191508051906020019080838360005b8381101561073b578082015181840152602081019050610720565b50505050905090810190601f1680156107685780820380516001836020036101000a031916815260200191505b5094505050505060206040518083038186803b15801561078757600080fd5b505afa15801561079b573d6000803e3d6000fd5b505050506040513d60208110156107b157600080fd5b8101908080519060200190929190505050905080610837576040517f08c379a000000000000000000000000000000000000000000000000000000000815260040180806020018281038252600c8152602001807f556e617574686f72697a6564000000000000000000000000000000000000000081525060200191505060405180910390fd5b60008686604051808383808284378083019250505092505050604051809103902090506000600160008381526020019081526020016000209050600042905086600281111561088257fe5b8260050160000160006101000a81548160ff021916908360028111156108a457fe5b0217905550808260050160010181905550827f1117001f1a7b8a526188d9bca8b42cd75234da1b298bb0a3160dc086b145333e826040518082815260200191505060405180910390a2505050505050505050565b6040518060400160405280601c81526020017f6164644361722862797465732c737472696e672c75696e7432353629000000008152503360008060009054906101000a900473ffffffffffffffffffffffffffffffffffffffff1673ffffffffffffffffffffffffffffffffffffffff1663a14a68d33085856040518463ffffffff1660e01b8152600401808473ffffffffffffffffffffffffffffffffffffffff1673ffffffffffffffffffffffffffffffffffffffff168152602001806020018373ffffffffffffffffffffffffffffffffffffffff1673ffffffffffffffffffffffffffffffffffffffff168152602001828103825284818151815260200191508051906020019080838360005b83811015610a24578082015181840152602081019050610a09565b50505050905090810190601f168015610a515780820380516001836020036101000a031916815260200191505b5094505050505060206040518083038186803b158015610a7057600080fd5b505afa158015610a84573d6000803e3d6000fd5b505050506040513d6020811015610a9a57600080fd5b8101908080519060200190929190505050905080610b20576040517f08c379a000000000000000000000000000000000000000000000000000000000815260040180806020018281038252600c8152602001807f556e617574686f72697a6564000000000000000000000000000000000000000081525060200191505060405180910390fd5b600043905060008989604051808383808284378083019250505092505050604051809103902090506040518060e001604052808281526020018381526020013373ffffffffffffffffffffffffffffffffffffffff16815260200189898080601f016020809104026020016040519081016040528093929190818152602001838380828437600081840152601f19601f820116905080830192505050505050508152602001876005811115610bd157fe5b6005811115610bdc57fe5b815260200160016005811115610bee57fe5b8152602001604051806040016040528060006002811115610c0b57fe5b8152602001600081525081525060016000838152602001908152602001600020600082015181600001556020820151816001015560408201518160020160006101000a81548173ffffffffffffffffffffffffffffffffffffffff021916908373ffffffffffffffffffffffffffffffffffffffff1602179055506060820151816003019080519060200190610ca29291906110ba565b5060808201518160040160006101000a81548160ff02191690836005811115610cc757fe5b021790555060a08201518160040160016101000a81548160ff02191690836005811115610cf057fe5b021790555060c08201518160050160008201518160000160006101000a81548160ff02191690836002811115610d2257fe5b0217905550602082015181600101555050905050807f4a2a2d7039e091da713f76b2ffac5166a367a618a72a32c0682eebee8b0fb832836040518082815260200191505060405180910390a250505050505050505050565b6040518060400160405280601d81526020017f75706461746543617253746174652862797465732c75696e74323536290000008152503360008060009054906101000a900473ffffffffffffffffffffffffffffffffffffffff1673ffffffffffffffffffffffffffffffffffffffff1663a14a68d33085856040518463ffffffff1660e01b8152600401808473ffffffffffffffffffffffffffffffffffffffff1673ffffffffffffffffffffffffffffffffffffffff168152602001806020018373ffffffffffffffffffffffffffffffffffffffff1673ffffffffffffffffffffffffffffffffffffffff168152602001828103825284818151815260200191508051906020019080838360005b83811015610ea6578082015181840152602081019050610e8b565b50505050905090810190601f168015610ed35780820380516001836020036101000a031916815260200191505b5094505050505060206040518083038186803b158015610ef257600080fd5b505afa158015610f06573d6000803e3d6000fd5b505050506040513d6020811015610f1c57600080fd5b8101908080519060200190929190505050905080610fa2576040517f08c379a000000000000000000000000000000000000000000000000000000000815260040180806020018281038252600c8152602001807f556e617574686f72697a6564000000000000000000000000000000000000000081525060200191505060405180910390fd5b6000868660405180838380828437808301925050509250505060405180910390209050846005811115610fd157fe5b6001600083815260200190815260200160002060040160016101000a81548160ff0219169083600581111561100257fe5b0217905550807f7a15f65ac0cd58f3c40d58395350918283e1240fbabc817b030b3c7317ebb699426040518082815260200191505060405180910390a250505050505050565b6040518060e001604052806000801916815260200160008152602001600073ffffffffffffffffffffffffffffffffffffffff168152602001606081526020016000600581111561109557fe5b8152602001600060058111156110a757fe5b81526020016110b461113a565b81525090565b828054600181600116156101000203166002900490600052602060002090601f016020900481019282601f106110fb57805160ff1916838001178555611129565b82800160010185558215611129579182015b8281111561112857825182559160200191906001019061110d565b5b509050611136919061115f565b5090565b60405180604001604052806000600281111561115257fe5b8152602001600081525090565b61118191905b8082111561117d576000816000905550600101611165565b5090565b9056fea265627a7a72315820b30821bc1c9ae338876b3216225ed50f7ad069aca3637549173eb207969690ff64736f6c63430005100032",
  "source": "pragma solidity >=0.5.16;\n\nimport \"./Permissions.sol\";\nimport \"./CarInterface.sol\";\n\n\ncontract CarTracker is CarInterface {\n    Permissions private auth;\n\n    mapping(bytes32 => Car) trackedCars;\n\n    modifier onlyAuthorized(string memory _method, address _account) {\n        bool hasAccess = auth.requestAccess(address(this), _method, _account);\n        require(hasAccess, \"Unauthorized\");\n        _;\n    }\n\n    constructor(address authorizerContractAddress) public {\n        auth = Permissions(authorizerContractAddress);\n    }\n\n    function addCar(\n        bytes calldata carID,\n        string calldata licensePlate,\n        uint256 carTypeIndex\n    ) external onlyAuthorized(\"addCar(bytes,string,uint256)\", msg.sender) {\n        uint256 creationBlock = block.number;\n        bytes32 _ID = keccak256(carID);\n        trackedCars[_ID] = Car({\n            ID: _ID,\n            creationBlock: creationBlock,\n            ownerID: msg.sender,\n            licensePlate: licensePlate,\n            _type: CarType(carTypeIndex),\n            _state: CarState.FOR_SALE,\n            itv: ITV({state: ITVState.PASSED, lastInspection: 0})\n        });\n        emit CarAdded(_ID, creationBlock);\n    }\n\n    function updateCarState(bytes calldata ID, uint256 carStateIndex)\n        external\n        onlyAuthorized(\"updateCarState(bytes,uint256)\", msg.sender)\n    {\n        bytes32 _ID = keccak256(ID);\n        trackedCars[_ID]._state = CarState(carStateIndex);\n        emit CarStateUpdated(_ID, now);\n    }\n\n    function updateITV(bytes calldata ID, uint256 itvStateIndex)\n        external\n        onlyAuthorized(\"updateITV(bytes,uint256)\", msg.sender)\n    {\n        bytes32 _ID = keccak256(ID);\n        Car storage car = trackedCars[_ID];\n        uint256 date = now;\n        car.itv.state = ITVState(itvStateIndex);\n        car.itv.lastInspection = date;\n        emit ITVInspection(_ID, date);\n    }\n\n    function getCar(bytes calldata carID)\n        external\n        view\n        returns (\n            bytes32 ID,\n            uint256 creationBlock,\n            address ownerID,\n            string memory licensePlate,\n            uint256 carType,\n            uint256 carState,\n            uint256 itvState,\n            uint256 lastInspection\n        )\n    {\n        bytes32 _carID = keccak256(carID);\n        Car memory car = trackedCars[_carID];\n        return (\n            ID = car.ID,\n            creationBlock = car.creationBlock,\n            ownerID = car.ownerID,\n            licensePlate = car.licensePlate,\n            carType = uint256(car._type),\n            carState = uint256(car._state),\n            itvState = uint256(car.itv.state),\n            lastInspection = car.itv.lastInspection\n        );\n    }\n}\n",
  "sourcePath": "/home/rekard0/Documents/WORK/project_master/car-chain/flutter-app/carchain/contracts/CarTracker.sol",
  "compiler": {
    "name": "solc",
    "version": "0.5.16+commit.9c3226ce.Emscripten.clang"
  },
  "schemaVersion": "3.2.3",
  "updatedAt": "2020-08-24T10:38:22.948Z",
  "networkType": "ethereum",
  "devdoc": {
    "methods": {}
  },
  "userdoc": {
    "methods": {}
  }
}