{
  "contractName": "CarManager",
  "abi": [
    {
      "inputs": [
        {
          "internalType": "address",
          "name": "authorizerContractAddress",
          "type": "address"
        }
      ],
      "stateMutability": "nonpayable",
      "type": "constructor"
    },
    {
      "anonymous": false,
      "inputs": [
        {
          "indexed": true,
          "internalType": "address",
          "name": "owner",
          "type": "address"
        },
        {
          "indexed": true,
          "internalType": "address",
          "name": "approved",
          "type": "address"
        },
        {
          "indexed": true,
          "internalType": "uint256",
          "name": "tokenId",
          "type": "uint256"
        }
      ],
      "name": "Approval",
      "type": "event"
    },
    {
      "anonymous": false,
      "inputs": [
        {
          "indexed": true,
          "internalType": "address",
          "name": "owner",
          "type": "address"
        },
        {
          "indexed": true,
          "internalType": "address",
          "name": "operator",
          "type": "address"
        },
        {
          "indexed": false,
          "internalType": "bool",
          "name": "approved",
          "type": "bool"
        }
      ],
      "name": "ApprovalForAll",
      "type": "event"
    },
    {
      "anonymous": false,
      "inputs": [
        {
          "indexed": true,
          "internalType": "uint256",
          "name": "carID",
          "type": "uint256"
        }
      ],
      "name": "CarAdded",
      "type": "event"
    },
    {
      "anonymous": false,
      "inputs": [
        {
          "indexed": true,
          "internalType": "uint256",
          "name": "carID",
          "type": "uint256"
        }
      ],
      "name": "CarStateUpdated",
      "type": "event"
    },
    {
      "anonymous": false,
      "inputs": [
        {
          "indexed": true,
          "internalType": "uint256",
          "name": "carID",
          "type": "uint256"
        }
      ],
      "name": "ITVInspection",
      "type": "event"
    },
    {
      "anonymous": false,
      "inputs": [
        {
          "indexed": true,
          "internalType": "address",
          "name": "from",
          "type": "address"
        },
        {
          "indexed": true,
          "internalType": "address",
          "name": "to",
          "type": "address"
        },
        {
          "indexed": true,
          "internalType": "uint256",
          "name": "tokenId",
          "type": "uint256"
        }
      ],
      "name": "Transfer",
      "type": "event"
    },
    {
      "inputs": [
        {
          "internalType": "address",
          "name": "to",
          "type": "address"
        },
        {
          "internalType": "uint256",
          "name": "tokenId",
          "type": "uint256"
        }
      ],
      "name": "approve",
      "outputs": [],
      "stateMutability": "nonpayable",
      "type": "function"
    },
    {
      "inputs": [
        {
          "internalType": "address",
          "name": "owner",
          "type": "address"
        }
      ],
      "name": "balanceOf",
      "outputs": [
        {
          "internalType": "uint256",
          "name": "",
          "type": "uint256"
        }
      ],
      "stateMutability": "view",
      "type": "function",
      "constant": true
    },
    {
      "inputs": [],
      "name": "baseURI",
      "outputs": [
        {
          "internalType": "string",
          "name": "",
          "type": "string"
        }
      ],
      "stateMutability": "view",
      "type": "function",
      "constant": true
    },
    {
      "inputs": [
        {
          "internalType": "uint256",
          "name": "tokenId",
          "type": "uint256"
        }
      ],
      "name": "getApproved",
      "outputs": [
        {
          "internalType": "address",
          "name": "",
          "type": "address"
        }
      ],
      "stateMutability": "view",
      "type": "function",
      "constant": true
    },
    {
      "inputs": [
        {
          "internalType": "address",
          "name": "owner",
          "type": "address"
        },
        {
          "internalType": "address",
          "name": "operator",
          "type": "address"
        }
      ],
      "name": "isApprovedForAll",
      "outputs": [
        {
          "internalType": "bool",
          "name": "",
          "type": "bool"
        }
      ],
      "stateMutability": "view",
      "type": "function",
      "constant": true
    },
    {
      "inputs": [],
      "name": "name",
      "outputs": [
        {
          "internalType": "string",
          "name": "",
          "type": "string"
        }
      ],
      "stateMutability": "view",
      "type": "function",
      "constant": true
    },
    {
      "inputs": [],
      "name": "owner",
      "outputs": [
        {
          "internalType": "address",
          "name": "",
          "type": "address"
        }
      ],
      "stateMutability": "view",
      "type": "function",
      "constant": true
    },
    {
      "inputs": [
        {
          "internalType": "uint256",
          "name": "tokenId",
          "type": "uint256"
        }
      ],
      "name": "ownerOf",
      "outputs": [
        {
          "internalType": "address",
          "name": "",
          "type": "address"
        }
      ],
      "stateMutability": "view",
      "type": "function",
      "constant": true
    },
    {
      "inputs": [
        {
          "internalType": "address",
          "name": "from",
          "type": "address"
        },
        {
          "internalType": "address",
          "name": "to",
          "type": "address"
        },
        {
          "internalType": "uint256",
          "name": "tokenId",
          "type": "uint256"
        }
      ],
      "name": "safeTransferFrom",
      "outputs": [],
      "stateMutability": "nonpayable",
      "type": "function"
    },
    {
      "inputs": [
        {
          "internalType": "address",
          "name": "from",
          "type": "address"
        },
        {
          "internalType": "address",
          "name": "to",
          "type": "address"
        },
        {
          "internalType": "uint256",
          "name": "tokenId",
          "type": "uint256"
        },
        {
          "internalType": "bytes",
          "name": "_data",
          "type": "bytes"
        }
      ],
      "name": "safeTransferFrom",
      "outputs": [],
      "stateMutability": "nonpayable",
      "type": "function"
    },
    {
      "inputs": [
        {
          "internalType": "address",
          "name": "operator",
          "type": "address"
        },
        {
          "internalType": "bool",
          "name": "approved",
          "type": "bool"
        }
      ],
      "name": "setApprovalForAll",
      "outputs": [],
      "stateMutability": "nonpayable",
      "type": "function"
    },
    {
      "inputs": [
        {
          "internalType": "bytes4",
          "name": "interfaceId",
          "type": "bytes4"
        }
      ],
      "name": "supportsInterface",
      "outputs": [
        {
          "internalType": "bool",
          "name": "",
          "type": "bool"
        }
      ],
      "stateMutability": "view",
      "type": "function",
      "constant": true
    },
    {
      "inputs": [],
      "name": "symbol",
      "outputs": [
        {
          "internalType": "string",
          "name": "",
          "type": "string"
        }
      ],
      "stateMutability": "view",
      "type": "function",
      "constant": true
    },
    {
      "inputs": [
        {
          "internalType": "uint256",
          "name": "index",
          "type": "uint256"
        }
      ],
      "name": "tokenByIndex",
      "outputs": [
        {
          "internalType": "uint256",
          "name": "",
          "type": "uint256"
        }
      ],
      "stateMutability": "view",
      "type": "function",
      "constant": true
    },
    {
      "inputs": [
        {
          "internalType": "address",
          "name": "owner",
          "type": "address"
        },
        {
          "internalType": "uint256",
          "name": "index",
          "type": "uint256"
        }
      ],
      "name": "tokenOfOwnerByIndex",
      "outputs": [
        {
          "internalType": "uint256",
          "name": "",
          "type": "uint256"
        }
      ],
      "stateMutability": "view",
      "type": "function",
      "constant": true
    },
    {
      "inputs": [
        {
          "internalType": "uint256",
          "name": "tokenId",
          "type": "uint256"
        }
      ],
      "name": "tokenURI",
      "outputs": [
        {
          "internalType": "string",
          "name": "",
          "type": "string"
        }
      ],
      "stateMutability": "view",
      "type": "function",
      "constant": true
    },
    {
      "inputs": [],
      "name": "totalSupply",
      "outputs": [
        {
          "internalType": "uint256",
          "name": "",
          "type": "uint256"
        }
      ],
      "stateMutability": "view",
      "type": "function",
      "constant": true
    },
    {
      "inputs": [
        {
          "internalType": "address",
          "name": "from",
          "type": "address"
        },
        {
          "internalType": "address",
          "name": "to",
          "type": "address"
        },
        {
          "internalType": "uint256",
          "name": "tokenId",
          "type": "uint256"
        }
      ],
      "name": "transferFrom",
      "outputs": [],
      "stateMutability": "nonpayable",
      "type": "function"
    },
    {
      "inputs": [
        {
          "internalType": "string",
          "name": "licensePlate",
          "type": "string"
        },
        {
          "internalType": "uint256",
          "name": "carTypeIndex",
          "type": "uint256"
        }
      ],
      "name": "addCar",
      "outputs": [],
      "stateMutability": "nonpayable",
      "type": "function"
    },
    {
      "inputs": [
        {
          "internalType": "uint256",
          "name": "id",
          "type": "uint256"
        },
        {
          "internalType": "uint256",
          "name": "carStateIndex",
          "type": "uint256"
        }
      ],
      "name": "updateCarState",
      "outputs": [],
      "stateMutability": "nonpayable",
      "type": "function"
    },
    {
      "inputs": [
        {
          "internalType": "uint256",
          "name": "carId",
          "type": "uint256"
        }
      ],
      "name": "getCar",
      "outputs": [
        {
          "internalType": "uint256",
          "name": "ID",
          "type": "uint256"
        },
        {
          "internalType": "string",
          "name": "licensePlate",
          "type": "string"
        },
        {
          "internalType": "uint256",
          "name": "carType",
          "type": "uint256"
        },
        {
          "internalType": "uint256",
          "name": "carState",
          "type": "uint256"
        }
      ],
      "stateMutability": "view",
      "type": "function",
      "constant": true
    }
  ],
  "bytecode": "0x60806040523480156200001157600080fd5b506040516200387038038062003870833981810160405260208110156200003757600080fd5b81019080805190602001909291905050506040518060400160405280600d81526020017f56656869636c65546f636b656e000000000000000000000000000000000000008152506040518060400160405280600481526020017f56434c45000000000000000000000000000000000000000000000000000000008152508233600160006101000a81548173ffffffffffffffffffffffffffffffffffffffff021916908373ffffffffffffffffffffffffffffffffffffffff160217905550806000806101000a81548173ffffffffffffffffffffffffffffffffffffffff021916908373ffffffffffffffffffffffffffffffffffffffff160217905550506200014f6301ffc9a760e01b620001d260201b60201c565b816008908051906020019062000167929190620002dc565b50806009908051906020019062000180929190620002dc565b50620001996380ac58cd60e01b620001d260201b60201c565b620001b1635b5e139f60e01b620001d260201b60201c565b620001c963780e9d6360e01b620001d260201b60201c565b5050506200038b565b63ffffffff60e01b817bffffffffffffffffffffffffffffffffffffffffffffffffffffffff191614156200026f576040517f08c379a000000000000000000000000000000000000000000000000000000000815260040180806020018281038252601c8152602001807f4552433136353a20696e76616c696420696e746572666163652069640000000081525060200191505060405180910390fd5b600160026000837bffffffffffffffffffffffffffffffffffffffffffffffffffffffff19167bffffffffffffffffffffffffffffffffffffffffffffffffffffffff1916815260200190815260200160002060006101000a81548160ff02191690831515021790555050565b828054600181600116156101000203166002900490600052602060002090601f016020900481019282601f106200031f57805160ff191683800117855562000350565b8280016001018555821562000350579182015b828111156200034f57825182559160200191906001019062000332565b5b5090506200035f919062000363565b5090565b6200038891905b80821115620003845760008160009055506001016200036a565b5090565b90565b6134d5806200039b6000396000f3fe608060405234801561001057600080fd5b50600436106101375760003560e01c80635e8be190116100b857806395d89b411161007c57806395d89b4114610705578063965ac0c514610788578063a22cb4651461080b578063b88d4fde1461085b578063c87b56dd14610960578063e985e9c514610a0757610137565b80635e8be190146104b65780636352211e146105725780636c0360eb146105e057806370a08231146106635780638da5cb5b146106bb57610137565b806323b872dd116100ff57806323b872dd146102fe5780632f745c591461036c57806342842e0e146103ce5780634f6ccce71461043c5780635d3fe8631461047e57610137565b806301ffc9a71461013c57806306fdde03146101a1578063081812fc14610224578063095ea7b31461029257806318160ddd146102e0575b600080fd5b6101876004803603602081101561015257600080fd5b8101908080357bffffffffffffffffffffffffffffffffffffffffffffffffffffffff19169060200190929190505050610a83565b604051808215151515815260200191505060405180910390f35b6101a9610aeb565b6040518080602001828103825283818151815260200191508051906020019080838360005b838110156101e95780820151818401526020810190506101ce565b50505050905090810190601f1680156102165780820380516001836020036101000a031916815260200191505b509250505060405180910390f35b6102506004803603602081101561023a57600080fd5b8101908080359060200190929190505050610b8d565b604051808273ffffffffffffffffffffffffffffffffffffffff1673ffffffffffffffffffffffffffffffffffffffff16815260200191505060405180910390f35b6102de600480360360408110156102a857600080fd5b81019080803573ffffffffffffffffffffffffffffffffffffffff16906020019092919080359060200190929190505050610c28565b005b6102e8610d6c565b6040518082815260200191505060405180910390f35b61036a6004803603606081101561031457600080fd5b81019080803573ffffffffffffffffffffffffffffffffffffffff169060200190929190803573ffffffffffffffffffffffffffffffffffffffff16906020019092919080359060200190929190505050610d7d565b005b6103b86004803603604081101561038257600080fd5b81019080803573ffffffffffffffffffffffffffffffffffffffff16906020019092919080359060200190929190505050610df3565b6040518082815260200191505060405180910390f35b61043a600480360360608110156103e457600080fd5b81019080803573ffffffffffffffffffffffffffffffffffffffff169060200190929190803573ffffffffffffffffffffffffffffffffffffffff16906020019092919080359060200190929190505050610e4e565b005b6104686004803603602081101561045257600080fd5b8101908080359060200190929190505050610e6e565b6040518082815260200191505060405180910390f35b6104b46004803603604081101561049457600080fd5b810190808035906020019092919080359060200190929190505050610e91565b005b6104e2600480360360208110156104cc57600080fd5b810190808035906020019092919050505061112f565b6040518085815260200180602001848152602001838152602001828103825285818151815260200191508051906020019080838360005b83811015610534578082015181840152602081019050610519565b50505050905090810190601f1680156105615780820380516001836020036101000a031916815260200191505b509550505050505060405180910390f35b61059e6004803603602081101561058857600080fd5b810190808035906020019092919050505061129a565b604051808273ffffffffffffffffffffffffffffffffffffffff1673ffffffffffffffffffffffffffffffffffffffff16815260200191505060405180910390f35b6105e86112d1565b6040518080602001828103825283818151815260200191508051906020019080838360005b8381101561062857808201518184015260208101905061060d565b50505050905090810190601f1680156106555780820380516001836020036101000a031916815260200191505b509250505060405180910390f35b6106a56004803603602081101561067957600080fd5b81019080803573ffffffffffffffffffffffffffffffffffffffff169060200190929190505050611373565b6040518082815260200191505060405180910390f35b6106c3611448565b604051808273ffffffffffffffffffffffffffffffffffffffff1673ffffffffffffffffffffffffffffffffffffffff16815260200191505060405180910390f35b61070d61146e565b6040518080602001828103825283818151815260200191508051906020019080838360005b8381101561074d578082015181840152602081019050610732565b50505050905090810190601f16801561077a5780820380516001836020036101000a031916815260200191505b509250505060405180910390f35b6108096004803603604081101561079e57600080fd5b81019080803590602001906401000000008111156107bb57600080fd5b8201836020820111156107cd57600080fd5b803590602001918460018302840111640100000000831117156107ef57600080fd5b909192939192939080359060200190929190505050611510565b005b6108596004803603604081101561082157600080fd5b81019080803573ffffffffffffffffffffffffffffffffffffffff1690602001909291908035151590602001909291905050506118d6565b005b61095e6004803603608081101561087157600080fd5b81019080803573ffffffffffffffffffffffffffffffffffffffff169060200190929190803573ffffffffffffffffffffffffffffffffffffffff16906020019092919080359060200190929190803590602001906401000000008111156108d857600080fd5b8201836020820111156108ea57600080fd5b8035906020019184600183028401116401000000008311171561090c57600080fd5b91908080601f016020809104026020016040519081016040528093929190818152602001838380828437600081840152601f19601f820116905080830192505050505050509192919290505050611a8e565b005b61098c6004803603602081101561097657600080fd5b8101908080359060200190929190505050611b06565b6040518080602001828103825283818151815260200191508051906020019080838360005b838110156109cc5780820151818401526020810190506109b1565b50505050905090810190601f1680156109f95780820380516001836020036101000a031916815260200191505b509250505060405180910390f35b610a6960048036036040811015610a1d57600080fd5b81019080803573ffffffffffffffffffffffffffffffffffffffff169060200190929190803573ffffffffffffffffffffffffffffffffffffffff169060200190929190505050611def565b604051808215151515815260200191505060405180910390f35b600060026000837bffffffffffffffffffffffffffffffffffffffffffffffffffffffff19167bffffffffffffffffffffffffffffffffffffffffffffffffffffffff1916815260200190815260200160002060009054906101000a900460ff169050919050565b606060088054600181600116156101000203166002900480601f016020809104026020016040519081016040528092919081815260200182805460018160011615610100020316600290048015610b835780601f10610b5857610100808354040283529160200191610b83565b820191906000526020600020905b815481529060010190602001808311610b6657829003601f168201915b5050505050905090565b6000610b9882611e83565b610bed576040517f08c379a000000000000000000000000000000000000000000000000000000000815260040180806020018281038252602c81526020018061339e602c913960400191505060405180910390fd5b6006600083815260200190815260200160002060009054906101000a900473ffffffffffffffffffffffffffffffffffffffff169050919050565b6000610c338261129a565b90508073ffffffffffffffffffffffffffffffffffffffff168373ffffffffffffffffffffffffffffffffffffffff161415610cba576040517f08c379a000000000000000000000000000000000000000000000000000000000815260040180806020018281038252602181526020018061344e6021913960400191505060405180910390fd5b8073ffffffffffffffffffffffffffffffffffffffff16610cd9611ea0565b73ffffffffffffffffffffffffffffffffffffffff161480610d085750610d0781610d02611ea0565b611def565b5b610d5d576040517f08c379a00000000000000000000000000000000000000000000000000000000081526004018080602001828103825260388152602001806132f16038913960400191505060405180910390fd5b610d678383611ea8565b505050565b6000610d786004611f61565b905090565b610d8e610d88611ea0565b82611f76565b610de3576040517f08c379a000000000000000000000000000000000000000000000000000000000815260040180806020018281038252603181526020018061346f6031913960400191505060405180910390fd5b610dee83838361206a565b505050565b6000610e4682600360008673ffffffffffffffffffffffffffffffffffffffff1673ffffffffffffffffffffffffffffffffffffffff1681526020019081526020016000206122ad90919063ffffffff16565b905092915050565b610e6983838360405180602001604052806000815250611a8e565b505050565b600080610e858360046122c790919063ffffffff16565b50905080915050919050565b6040518060400160405280601d81526020017f75706461746543617253746174652862797465732c75696e74323536290000008152503360008060009054906101000a900473ffffffffffffffffffffffffffffffffffffffff1673ffffffffffffffffffffffffffffffffffffffff1663a14a68d33085856040518463ffffffff1660e01b8152600401808473ffffffffffffffffffffffffffffffffffffffff1673ffffffffffffffffffffffffffffffffffffffff168152602001806020018373ffffffffffffffffffffffffffffffffffffffff1673ffffffffffffffffffffffffffffffffffffffff168152602001828103825284818151815260200191508051906020019080838360005b83811015610fbd578082015181840152602081019050610fa2565b50505050905090810190601f168015610fea5780820380516001836020036101000a031916815260200191505b5094505050505060206040518083038186803b15801561100957600080fd5b505afa15801561101d573d6000803e3d6000fd5b505050506040513d602081101561103357600080fd5b81019080805190602001909291905050509050806110b9576040517f08c379a000000000000000000000000000000000000000000000000000000000815260040180806020018281038252600c8152602001807f556e617574686f72697a6564000000000000000000000000000000000000000081525060200191505060405180910390fd5b8360058111156110c557fe5b600d600087815260200190815260200160002060020160016101000a81548160ff021916908360058111156110f657fe5b0217905550847f3cf28009f84f5f184138019eb1ddcc7aa6499a65d9ec7aebebed6994ad79df3560405160405180910390a25050505050565b6000606060008061113e613169565b600d600087815260200190815260200160002060405180608001604052908160008201548152602001600182018054600181600116156101000203166002900480601f0160208091040260200160405190810160405280929190818152602001828054600181600116156101000203166002900480156111ff5780601f106111d4576101008083540402835291602001916111ff565b820191906000526020600020905b8154815290600101906020018083116111e257829003601f168201915b505050505081526020016002820160009054906101000a900460ff16600581111561122657fe5b600581111561123157fe5b81526020016002820160019054906101000a900460ff16600581111561125357fe5b600581111561125e57fe5b8152505090508581602001518260400151600581111561127a57fe5b8360600151600581111561128a57fe5b9450945094509450509193509193565b60006112ca826040518060600160405280602981526020016133536029913960046122f69092919063ffffffff16565b9050919050565b6060600b8054600181600116156101000203166002900480601f0160208091040260200160405190810160405280929190818152602001828054600181600116156101000203166002900480156113695780601f1061133e57610100808354040283529160200191611369565b820191906000526020600020905b81548152906001019060200180831161134c57829003601f168201915b5050505050905090565b60008073ffffffffffffffffffffffffffffffffffffffff168273ffffffffffffffffffffffffffffffffffffffff1614156113fa576040517f08c379a000000000000000000000000000000000000000000000000000000000815260040180806020018281038252602a815260200180613329602a913960400191505060405180910390fd5b611441600360008473ffffffffffffffffffffffffffffffffffffffff1673ffffffffffffffffffffffffffffffffffffffff168152602001908152602001600020612315565b9050919050565b600160009054906101000a900473ffffffffffffffffffffffffffffffffffffffff1681565b606060098054600181600116156101000203166002900480601f0160208091040260200160405190810160405280929190818152602001828054600181600116156101000203166002900480156115065780601f106114db57610100808354040283529160200191611506565b820191906000526020600020905b8154815290600101906020018083116114e957829003601f168201915b5050505050905090565b6040518060400160405280601c81526020017f6164644361722862797465732c737472696e672c75696e7432353629000000008152503360008060009054906101000a900473ffffffffffffffffffffffffffffffffffffffff1673ffffffffffffffffffffffffffffffffffffffff1663a14a68d33085856040518463ffffffff1660e01b8152600401808473ffffffffffffffffffffffffffffffffffffffff1673ffffffffffffffffffffffffffffffffffffffff168152602001806020018373ffffffffffffffffffffffffffffffffffffffff1673ffffffffffffffffffffffffffffffffffffffff168152602001828103825284818151815260200191508051906020019080838360005b8381101561163c578082015181840152602081019050611621565b50505050905090810190601f1680156116695780820380516001836020036101000a031916815260200191505b5094505050505060206040518083038186803b15801561168857600080fd5b505afa15801561169c573d6000803e3d6000fd5b505050506040513d60208110156116b257600080fd5b8101908080519060200190929190505050905080611738576040517f08c379a000000000000000000000000000000000000000000000000000000000815260040180806020018281038252600c8152602001807f556e617574686f72697a6564000000000000000000000000000000000000000081525060200191505060405180910390fd5b60006117883388888080601f016020809104026020016040519081016040528093929190818152602001838380828437600081840152601f19601f8201169050808301925050505050505061232a565b9050604051806080016040528082815260200188888080601f016020809104026020016040519081016040528093929190818152602001838380828437600081840152601f19601f8201169050808301925050505050505081526020018660058111156117f157fe5b60058111156117fc57fe5b81526020016001600581111561180e57fe5b815250600d600083815260200190815260200160002060008201518160000155602082015181600101908051906020019061184a9291906131a7565b5060408201518160020160006101000a81548160ff0219169083600581111561186f57fe5b021790555060608201518160020160016101000a81548160ff0219169083600581111561189857fe5b0217905550905050807ff2df0bf0a874af139f49fc333240e92f4eb6c66d66b2acd52257d70dcc6426d860405160405180910390a250505050505050565b6118de611ea0565b73ffffffffffffffffffffffffffffffffffffffff168273ffffffffffffffffffffffffffffffffffffffff16141561197f576040517f08c379a00000000000000000000000000000000000000000000000000000000081526004018080602001828103825260198152602001807f4552433732313a20617070726f766520746f2063616c6c65720000000000000081525060200191505060405180910390fd5b806007600061198c611ea0565b73ffffffffffffffffffffffffffffffffffffffff1673ffffffffffffffffffffffffffffffffffffffff16815260200190815260200160002060008473ffffffffffffffffffffffffffffffffffffffff1673ffffffffffffffffffffffffffffffffffffffff16815260200190815260200160002060006101000a81548160ff0219169083151502179055508173ffffffffffffffffffffffffffffffffffffffff16611a39611ea0565b73ffffffffffffffffffffffffffffffffffffffff167f17307eab39ab6107e8899845ad3d59bd9653f200f220920489ca2b5937696c3183604051808215151515815260200191505060405180910390a35050565b611a9f611a99611ea0565b83611f76565b611af4576040517f08c379a000000000000000000000000000000000000000000000000000000000815260040180806020018281038252603181526020018061346f6031913960400191505060405180910390fd5b611b0084848484612362565b50505050565b6060611b1182611e83565b611b66576040517f08c379a000000000000000000000000000000000000000000000000000000000815260040180806020018281038252602f81526020018061341f602f913960400191505060405180910390fd5b6060600a60008481526020019081526020016000208054600181600116156101000203166002900480601f016020809104026020016040519081016040528092919081815260200182805460018160011615610100020316600290048015611c0f5780601f10611be457610100808354040283529160200191611c0f565b820191906000526020600020905b815481529060010190602001808311611bf257829003601f168201915b505050505090506000600b8054600181600116156101000203166002900490501415611c3e5780915050611dea565b600081511115611d1757600b816040516020018083805460018160011615610100020316600290048015611ca95780601f10611c87576101008083540402835291820191611ca9565b820191906000526020600020905b815481529060010190602001808311611c95575b505082805190602001908083835b60208310611cda5780518252602082019150602081019050602083039250611cb7565b6001836020036101000a03801982511681845116808217855250505050505090500192505050604051602081830303815290604052915050611dea565b600b611d22846123d4565b6040516020018083805460018160011615610100020316600290048015611d805780601f10611d5e576101008083540402835291820191611d80565b820191906000526020600020905b815481529060010190602001808311611d6c575b505082805190602001908083835b60208310611db15780518252602082019150602081019050602083039250611d8e565b6001836020036101000a038019825116818451168082178552505050505050905001925050506040516020818303038152906040529150505b919050565b6000600760008473ffffffffffffffffffffffffffffffffffffffff1673ffffffffffffffffffffffffffffffffffffffff16815260200190815260200160002060008373ffffffffffffffffffffffffffffffffffffffff1673ffffffffffffffffffffffffffffffffffffffff16815260200190815260200160002060009054906101000a900460ff16905092915050565b6000611e9982600461251b90919063ffffffff16565b9050919050565b600033905090565b816006600083815260200190815260200160002060006101000a81548173ffffffffffffffffffffffffffffffffffffffff021916908373ffffffffffffffffffffffffffffffffffffffff160217905550808273ffffffffffffffffffffffffffffffffffffffff16611f1b8361129a565b73ffffffffffffffffffffffffffffffffffffffff167f8c5be1e5ebec7d5bd14f71427d1e84f3dd0314c0f7b2291e5b200ac8c7c3b92560405160405180910390a45050565b6000611f6f82600001612535565b9050919050565b6000611f8182611e83565b611fd6576040517f08c379a000000000000000000000000000000000000000000000000000000000815260040180806020018281038252602c8152602001806132c5602c913960400191505060405180910390fd5b6000611fe18361129a565b90508073ffffffffffffffffffffffffffffffffffffffff168473ffffffffffffffffffffffffffffffffffffffff16148061205057508373ffffffffffffffffffffffffffffffffffffffff1661203884610b8d565b73ffffffffffffffffffffffffffffffffffffffff16145b8061206157506120608185611def565b5b91505092915050565b8273ffffffffffffffffffffffffffffffffffffffff1661208a8261129a565b73ffffffffffffffffffffffffffffffffffffffff16146120f6576040517f08c379a00000000000000000000000000000000000000000000000000000000081526004018080602001828103825260298152602001806133f66029913960400191505060405180910390fd5b600073ffffffffffffffffffffffffffffffffffffffff168273ffffffffffffffffffffffffffffffffffffffff16141561217c576040517f08c379a00000000000000000000000000000000000000000000000000000000081526004018080602001828103825260248152602001806132a16024913960400191505060405180910390fd5b612187838383612546565b612192600082611ea8565b6121e381600360008673ffffffffffffffffffffffffffffffffffffffff1673ffffffffffffffffffffffffffffffffffffffff16815260200190815260200160002061254b90919063ffffffff16565b5061223581600360008573ffffffffffffffffffffffffffffffffffffffff1673ffffffffffffffffffffffffffffffffffffffff16815260200190815260200160002061256590919063ffffffff16565b5061224c8183600461257f9092919063ffffffff16565b50808273ffffffffffffffffffffffffffffffffffffffff168473ffffffffffffffffffffffffffffffffffffffff167fddf252ad1be2c89b69c2b068fc378daa952ba7f163c4a11628f55a4df523b3ef60405160405180910390a4505050565b60006122bc83600001836125b4565b60001c905092915050565b6000806000806122da8660000186612637565b915091508160001c8160001c8090509350935050509250929050565b6000612309846000018460001b846126d0565b60001c90509392505050565b6000612323826000016127c6565b9050919050565b6000612336600c6127d7565b6000612342600c6127ed565b905061234e84826127fb565b61235881846129ef565b8091505092915050565b61236d84848461206a565b61237984848484612a79565b6123ce576040517f08c379a000000000000000000000000000000000000000000000000000000000815260040180806020018281038252603281526020018061326f6032913960400191505060405180910390fd5b50505050565b6060600082141561241c576040518060400160405280600181526020017f30000000000000000000000000000000000000000000000000000000000000008152509050612516565b600082905060005b60008214612446578080600101915050600a828161243e57fe5b049150612424565b60608167ffffffffffffffff8111801561245f57600080fd5b506040519080825280601f01601f1916602001820160405280156124925781602001600182028036833780820191505090505b50905060006001830390508593505b6000841461250e57600a84816124b357fe5b0660300160f81b828280600190039350815181106124cd57fe5b60200101907effffffffffffffffffffffffffffffffffffffffffffffffffffffffffffff1916908160001a905350600a848161250657fe5b0493506124a1565b819450505050505b919050565b600061252d836000018360001b612cbe565b905092915050565b600081600001805490509050919050565b505050565b600061255d836000018360001b612ce1565b905092915050565b6000612577836000018360001b612dc9565b905092915050565b60006125ab846000018460001b8473ffffffffffffffffffffffffffffffffffffffff1660001b612e39565b90509392505050565b600081836000018054905011612615576040517f08c379a000000000000000000000000000000000000000000000000000000000815260040180806020018281038252602281526020018061324d6022913960400191505060405180910390fd5b82600001828154811061262457fe5b9060005260206000200154905092915050565b60008082846000018054905011612699576040517f08c379a000000000000000000000000000000000000000000000000000000000815260040180806020018281038252602281526020018061337c6022913960400191505060405180910390fd5b60008460000184815481106126aa57fe5b906000526020600020906002020190508060000154816001015492509250509250929050565b60008084600101600085815260200190815260200160002054905060008114158390612797576040517f08c379a00000000000000000000000000000000000000000000000000000000081526004018080602001828103825283818151815260200191508051906020019080838360005b8381101561275c578082015181840152602081019050612741565b50505050905090810190601f1680156127895780820380516001836020036101000a031916815260200191505b509250505060405180910390fd5b508460000160018203815481106127aa57fe5b9060005260206000209060020201600101549150509392505050565b600081600001805490509050919050565b6001816000016000828254019250508190555050565b600081600001549050919050565b600073ffffffffffffffffffffffffffffffffffffffff168273ffffffffffffffffffffffffffffffffffffffff16141561289e576040517f08c379a00000000000000000000000000000000000000000000000000000000081526004018080602001828103825260208152602001807f4552433732313a206d696e7420746f20746865207a65726f206164647265737381525060200191505060405180910390fd5b6128a781611e83565b1561291a576040517f08c379a000000000000000000000000000000000000000000000000000000000815260040180806020018281038252601c8152602001807f4552433732313a20746f6b656e20616c7265616479206d696e7465640000000081525060200191505060405180910390fd5b61292660008383612546565b61297781600360008573ffffffffffffffffffffffffffffffffffffffff1673ffffffffffffffffffffffffffffffffffffffff16815260200190815260200160002061256590919063ffffffff16565b5061298e8183600461257f9092919063ffffffff16565b50808273ffffffffffffffffffffffffffffffffffffffff16600073ffffffffffffffffffffffffffffffffffffffff167fddf252ad1be2c89b69c2b068fc378daa952ba7f163c4a11628f55a4df523b3ef60405160405180910390a45050565b6129f882611e83565b612a4d576040517f08c379a000000000000000000000000000000000000000000000000000000000815260040180806020018281038252602c8152602001806133ca602c913960400191505060405180910390fd5b80600a60008481526020019081526020016000209080519060200190612a749291906131a7565b505050565b6000612a9a8473ffffffffffffffffffffffffffffffffffffffff16612f15565b612aa75760019050612cb6565b6060612c3d63150b7a0260e01b612abc611ea0565b888787604051602401808573ffffffffffffffffffffffffffffffffffffffff1673ffffffffffffffffffffffffffffffffffffffff1681526020018473ffffffffffffffffffffffffffffffffffffffff1673ffffffffffffffffffffffffffffffffffffffff16815260200183815260200180602001828103825283818151815260200191508051906020019080838360005b83811015612b6c578082015181840152602081019050612b51565b50505050905090810190601f168015612b995780820380516001836020036101000a031916815260200191505b5095505050505050604051602081830303815290604052907bffffffffffffffffffffffffffffffffffffffffffffffffffffffff19166020820180517bffffffffffffffffffffffffffffffffffffffffffffffffffffffff838183161783525050505060405180606001604052806032815260200161326f603291398773ffffffffffffffffffffffffffffffffffffffff16612f289092919063ffffffff16565b90506000818060200190516020811015612c5657600080fd5b8101908080519060200190929190505050905063150b7a0260e01b7bffffffffffffffffffffffffffffffffffffffffffffffffffffffff1916817bffffffffffffffffffffffffffffffffffffffffffffffffffffffff191614925050505b949350505050565b600080836001016000848152602001908152602001600020541415905092915050565b60008083600101600084815260200190815260200160002054905060008114612dbd5760006001820390506000600186600001805490500390506000866000018281548110612d2c57fe5b9060005260206000200154905080876000018481548110612d4957fe5b9060005260206000200181905550600183018760010160008381526020019081526020016000208190555086600001805480612d8157fe5b60019003818190600052602060002001600090559055866001016000878152602001908152602001600020600090556001945050505050612dc3565b60009150505b92915050565b6000612dd58383612f40565b612e2e578260000182908060018154018082558091505060019003906000526020600020016000909190919091505582600001805490508360010160008481526020019081526020016000208190555060019050612e33565b600090505b92915050565b6000808460010160008581526020019081526020016000205490506000811415612ee057846000016040518060400160405280868152602001858152509080600181540180825580915050600190039060005260206000209060020201600090919091909150600082015181600001556020820151816001015550508460000180549050856001016000868152602001908152602001600020819055506001915050612f0e565b82856000016001830381548110612ef357fe5b90600052602060002090600202016001018190555060009150505b9392505050565b600080823b905060008111915050919050565b6060612f378484600085612f63565b90509392505050565b600080836001016000848152602001908152602001600020541415905092915050565b6060612f6e85612f15565b612fe0576040517f08c379a000000000000000000000000000000000000000000000000000000000815260040180806020018281038252601d8152602001807f416464726573733a2063616c6c20746f206e6f6e2d636f6e747261637400000081525060200191505060405180910390fd5b600060608673ffffffffffffffffffffffffffffffffffffffff1685876040518082805190602001908083835b60208310613030578051825260208201915060208101905060208303925061300d565b6001836020036101000a03801982511681845116808217855250505050505090500191505060006040518083038185875af1925050503d8060008114613092576040519150601f19603f3d011682016040523d82523d6000602084013e613097565b606091505b509150915081156130ac578092505050613161565b6000815111156130bf5780518082602001fd5b836040517f08c379a00000000000000000000000000000000000000000000000000000000081526004018080602001828103825283818151815260200191508051906020019080838360005b8381101561312657808201518184015260208101905061310b565b50505050905090810190601f1680156131535780820380516001836020036101000a031916815260200191505b509250505060405180910390fd5b949350505050565b604051806080016040528060008152602001606081526020016000600581111561318f57fe5b8152602001600060058111156131a157fe5b81525090565b828054600181600116156101000203166002900490600052602060002090601f016020900481019282601f106131e857805160ff1916838001178555613216565b82800160010185558215613216579182015b828111156132155782518255916020019190600101906131fa565b5b5090506132239190613227565b5090565b61324991905b8082111561324557600081600090555060010161322d565b5090565b9056fe456e756d657261626c655365743a20696e646578206f7574206f6620626f756e64734552433732313a207472616e7366657220746f206e6f6e20455243373231526563656976657220696d706c656d656e7465724552433732313a207472616e7366657220746f20746865207a65726f20616464726573734552433732313a206f70657261746f7220717565727920666f72206e6f6e6578697374656e7420746f6b656e4552433732313a20617070726f76652063616c6c6572206973206e6f74206f776e6572206e6f7220617070726f76656420666f7220616c6c4552433732313a2062616c616e636520717565727920666f7220746865207a65726f20616464726573734552433732313a206f776e657220717565727920666f72206e6f6e6578697374656e7420746f6b656e456e756d657261626c654d61703a20696e646578206f7574206f6620626f756e64734552433732313a20617070726f76656420717565727920666f72206e6f6e6578697374656e7420746f6b656e4552433732314d657461646174613a2055524920736574206f66206e6f6e6578697374656e7420746f6b656e4552433732313a207472616e73666572206f6620746f6b656e2074686174206973206e6f74206f776e4552433732314d657461646174613a2055524920717565727920666f72206e6f6e6578697374656e7420746f6b656e4552433732313a20617070726f76616c20746f2063757272656e74206f776e65724552433732313a207472616e736665722063616c6c6572206973206e6f74206f776e6572206e6f7220617070726f766564a2646970667358221220b91d86bb8622e427760f8a6686e933350f8cb6af0bcc9e8869d8868865050d6964736f6c63430006060033",
  "immutableReferences": {},
  "source": "pragma solidity ^0.6.0;\n\nimport \"./BaseManager.sol\";\nimport \"./interfaces/CarInterface.sol\";\nimport \"@openzeppelin/contracts/token/ERC721/ERC721.sol\";\nimport \"@openzeppelin/contracts/utils/Counters.sol\";\n\ncontract CarManager is BaseManager, ERC721 {\n    // erc721 related\n    using Counters for Counters.Counter;\n    Counters.Counter private _tokenIds;\n    //\n    string constant ADD_CAR_METHOD = \"addCar(bytes,string,uint256)\";\n    string constant UPDATE_CAR_METHOD = \"updateCarState(bytes,uint256)\";\n    /*\n     * At the moment this state adds nothing to the contract - it doesn't give the users relevant information,\n     * and it doesn't modify functions. We must update this to include relevant information or remove it.\n     */\n    enum CarState {\n        SHIPPED,\n        FOR_SALE,\n        PROCESSING_SALE,\n        SOLD,\n        PROCESSING_REGISTER,\n        REGISTERED\n    }\n\n    /*\n     * Permit type or car type is related to the ITV - inspection intervals are determined by this variable\n     * We must look into the `legal` types of vehicles and permits\n     */\n    enum CarType {\n        TWO_WHEEL,\n        THREE_WHEEL,\n        FOUR_WHEEL,\n        HEAVY,\n        AGRICULTURE,\n        SERVICE\n    }\n\n    struct Car {\n        uint256 vehicleId;\n        string licensePlate;\n        CarType carType;\n        CarState carState;\n    }\n\n    mapping(uint256 => Car) trackedCars;\n    uint256[] registeredCars;\n\n    event CarAdded(uint256 indexed carID); // probably we need carOwner's address in the event\n    event CarStateUpdated(uint256 indexed carID);\n    event ITVInspection(uint256 indexed carID);\n\n    constructor(address authorizerContractAddress)\n        public\n        BaseManager(authorizerContractAddress) ERC721(\"VehicleTocken\", \"VCLE\")\n    {}\n\n    function _generateVehicleTocken(address vehicleOwner, string memory tokenURI)\n        internal\n        returns (uint256)\n    {\n        _tokenIds.increment();\n\n        uint256 newItemId = _tokenIds.current();\n        _mint(vehicleOwner, newItemId);\n        _setTokenURI(newItemId, tokenURI);\n\n        return newItemId;\n    }\n\n    function addCar(\n        // string calldata carId,\n        string calldata licensePlate,\n        uint256 carTypeIndex\n    ) external onlyAuthorized(ADD_CAR_METHOD, msg.sender) {\n        // uint256 id = uint256(keccak256(abi.encode(carId)));\n\n        uint256 tockenId = _generateVehicleTocken(msg.sender,licensePlate);\n\n        trackedCars[tockenId] = Car({\n            vehicleId: tockenId,\n            licensePlate: licensePlate,\n            carType: CarType(carTypeIndex),\n            carState: CarState.FOR_SALE\n        });\n\n        emit CarAdded(tockenId);\n    }\n\n    function updateCarState(uint256 id, uint256 carStateIndex)\n        external\n        onlyAuthorized(UPDATE_CAR_METHOD, msg.sender)\n    {\n        trackedCars[id].carState = CarState(carStateIndex);\n\n        emit CarStateUpdated(id);\n    }\n\n    function getCar(uint256 carId)\n        external\n        view\n        returns (\n            uint256 ID,\n            string memory licensePlate,\n            uint256 carType,\n            uint256 carState\n        )\n    {\n        Car memory car = trackedCars[carId];\n\n        return (\n            carId,\n            car.licensePlate,\n            uint256(car.carType),\n            uint256(car.carState)\n        );\n    }\n}\n",
  "sourcePath": "/home/rekard0/Documents/WORK/project_master/car-chain/flutter-app/carchain/contracts/CarManager.sol",
  "compiler": {
    "name": "solc",
    "version": "0.6.6+commit.6c089d02.Emscripten.clang"
  },
  "schemaVersion": "3.2.3",
  "updatedAt": "2020-09-11T22:22:39.380Z",
  "networkType": "ethereum",
  "devdoc": {
    "methods": {
      "approve(address,uint256)": {
        "details": "See {IERC721-approve}."
      },
      "balanceOf(address)": {
        "details": "See {IERC721-balanceOf}."
      },
      "baseURI()": {
        "details": "Returns the base URI set via {_setBaseURI}. This will be automatically added as a prefix in {tokenURI} to each token's URI, or to the token ID if no specific URI is set for that token ID."
      },
      "getApproved(uint256)": {
        "details": "See {IERC721-getApproved}."
      },
      "isApprovedForAll(address,address)": {
        "details": "See {IERC721-isApprovedForAll}."
      },
      "name()": {
        "details": "See {IERC721Metadata-name}."
      },
      "ownerOf(uint256)": {
        "details": "See {IERC721-ownerOf}."
      },
      "safeTransferFrom(address,address,uint256)": {
        "details": "See {IERC721-safeTransferFrom}."
      },
      "safeTransferFrom(address,address,uint256,bytes)": {
        "details": "See {IERC721-safeTransferFrom}."
      },
      "setApprovalForAll(address,bool)": {
        "details": "See {IERC721-setApprovalForAll}."
      },
      "supportsInterface(bytes4)": {
        "details": "See {IERC165-supportsInterface}.     * Time complexity O(1), guaranteed to always use less than 30 000 gas."
      },
      "symbol()": {
        "details": "See {IERC721Metadata-symbol}."
      },
      "tokenByIndex(uint256)": {
        "details": "See {IERC721Enumerable-tokenByIndex}."
      },
      "tokenOfOwnerByIndex(address,uint256)": {
        "details": "See {IERC721Enumerable-tokenOfOwnerByIndex}."
      },
      "tokenURI(uint256)": {
        "details": "See {IERC721Metadata-tokenURI}."
      },
      "totalSupply()": {
        "details": "See {IERC721Enumerable-totalSupply}."
      },
      "transferFrom(address,address,uint256)": {
        "details": "See {IERC721-transferFrom}."
      }
    }
  },
  "userdoc": {
    "methods": {}
  }
}