{
  "contractName": "CarManager",
  "abi": [
    {
      "inputs": [
        {
          "internalType": "address",
          "name": "authorizerContractAddress",
          "type": "address"
        }
      ],
      "payable": false,
      "stateMutability": "nonpayable",
      "type": "constructor"
    },
    {
      "anonymous": false,
      "inputs": [
        {
          "indexed": true,
          "internalType": "uint256",
          "name": "carID",
          "type": "uint256"
        }
      ],
      "name": "CarAdded",
      "type": "event"
    },
    {
      "anonymous": false,
      "inputs": [
        {
          "indexed": true,
          "internalType": "uint256",
          "name": "carID",
          "type": "uint256"
        }
      ],
      "name": "CarStateUpdated",
      "type": "event"
    },
    {
      "anonymous": false,
      "inputs": [
        {
          "indexed": true,
          "internalType": "uint256",
          "name": "carID",
          "type": "uint256"
        }
      ],
      "name": "ITVInspection",
      "type": "event"
    },
    {
      "constant": true,
      "inputs": [],
      "name": "owner",
      "outputs": [
        {
          "internalType": "address",
          "name": "",
          "type": "address"
        }
      ],
      "payable": false,
      "stateMutability": "view",
      "type": "function"
    },
    {
      "constant": false,
      "inputs": [
        {
          "internalType": "string",
          "name": "carId",
          "type": "string"
        },
        {
          "internalType": "string",
          "name": "licensePlate",
          "type": "string"
        },
        {
          "internalType": "uint256",
          "name": "carTypeIndex",
          "type": "uint256"
        }
      ],
      "name": "addCar",
      "outputs": [],
      "payable": false,
      "stateMutability": "nonpayable",
      "type": "function"
    },
    {
      "constant": false,
      "inputs": [
        {
          "internalType": "uint256",
          "name": "id",
          "type": "uint256"
        },
        {
          "internalType": "uint256",
          "name": "carStateIndex",
          "type": "uint256"
        }
      ],
      "name": "updateCarState",
      "outputs": [],
      "payable": false,
      "stateMutability": "nonpayable",
      "type": "function"
    },
    {
      "constant": true,
      "inputs": [
        {
          "internalType": "uint256",
          "name": "carId",
          "type": "uint256"
        }
      ],
      "name": "getCar",
      "outputs": [
        {
          "internalType": "uint256",
          "name": "ID",
          "type": "uint256"
        },
        {
          "internalType": "string",
          "name": "licensePlate",
          "type": "string"
        },
        {
          "internalType": "uint256",
          "name": "carType",
          "type": "uint256"
        },
        {
          "internalType": "uint256",
          "name": "carState",
          "type": "uint256"
        }
      ],
      "payable": false,
      "stateMutability": "view",
      "type": "function"
    }
  ],
  "bytecode": "0x608060405234801561001057600080fd5b50604051610c37380380610c378339818101604052602081101561003357600080fd5b81019080805190602001909291905050508033600160006101000a81548173ffffffffffffffffffffffffffffffffffffffff021916908373ffffffffffffffffffffffffffffffffffffffff160217905550806000806101000a81548173ffffffffffffffffffffffffffffffffffffffff021916908373ffffffffffffffffffffffffffffffffffffffff1602179055505050610b60806100d76000396000f3fe608060405234801561001057600080fd5b506004361061004c5760003560e01c806305574ee9146100515780635d3fe863146101295780635e8be190146101615780638da5cb5b1461021d575b600080fd5b6101276004803603606081101561006757600080fd5b810190808035906020019064010000000081111561008457600080fd5b82018360208201111561009657600080fd5b803590602001918460018302840111640100000000831117156100b857600080fd5b9091929391929390803590602001906401000000008111156100d957600080fd5b8201836020820111156100eb57600080fd5b8035906020019184600183028401116401000000008311171561010d57600080fd5b909192939192939080359060200190929190505050610267565b005b61015f6004803603604081101561013f57600080fd5b810190808035906020019092919080359060200190929190505050610627565b005b61018d6004803603602081101561017757600080fd5b81019080803590602001909291905050506108c5565b6040518085815260200180602001848152602001838152602001828103825285818151815260200191508051906020019080838360005b838110156101df5780820151818401526020810190506101c4565b50505050905090810190601f16801561020c5780820380516001836020036101000a031916815260200191505b509550505050505060405180910390f35b610225610a29565b604051808273ffffffffffffffffffffffffffffffffffffffff1673ffffffffffffffffffffffffffffffffffffffff16815260200191505060405180910390f35b6040518060400160405280601c81526020017f6164644361722862797465732c737472696e672c75696e7432353629000000008152503360008060009054906101000a900473ffffffffffffffffffffffffffffffffffffffff1673ffffffffffffffffffffffffffffffffffffffff1663a14a68d33085856040518463ffffffff1660e01b8152600401808473ffffffffffffffffffffffffffffffffffffffff1673ffffffffffffffffffffffffffffffffffffffff168152602001806020018373ffffffffffffffffffffffffffffffffffffffff1673ffffffffffffffffffffffffffffffffffffffff168152602001828103825284818151815260200191508051906020019080838360005b83811015610393578082015181840152602081019050610378565b50505050905090810190601f1680156103c05780820380516001836020036101000a031916815260200191505b5094505050505060206040518083038186803b1580156103df57600080fd5b505afa1580156103f3573d6000803e3d6000fd5b505050506040513d602081101561040957600080fd5b810190808051906020019092919050505090508061048f576040517f08c379a000000000000000000000000000000000000000000000000000000000815260040180806020018281038252600c8152602001807f556e617574686f72697a6564000000000000000000000000000000000000000081525060200191505060405180910390fd5b6000888860405160200180806020018281038252848482818152602001925080828437600081840152601f19601f82011690508083019250505093505050506040516020818303038152906040528051906020012060001c9050604051806060016040528088888080601f016020809104026020016040519081016040528093929190818152602001838380828437600081840152601f19601f82011690508083019250505050505050815260200186600581111561054a57fe5b600581111561055557fe5b81526020016001600581111561056757fe5b815250600260008381526020019081526020016000206000820151816000019080519060200190610599929190610a4f565b5060208201518160010160006101000a81548160ff021916908360058111156105be57fe5b021790555060408201518160010160016101000a81548160ff021916908360058111156105e757fe5b0217905550905050807ff2df0bf0a874af139f49fc333240e92f4eb6c66d66b2acd52257d70dcc6426d860405160405180910390a2505050505050505050565b6040518060400160405280601d81526020017f75706461746543617253746174652862797465732c75696e74323536290000008152503360008060009054906101000a900473ffffffffffffffffffffffffffffffffffffffff1673ffffffffffffffffffffffffffffffffffffffff1663a14a68d33085856040518463ffffffff1660e01b8152600401808473ffffffffffffffffffffffffffffffffffffffff1673ffffffffffffffffffffffffffffffffffffffff168152602001806020018373ffffffffffffffffffffffffffffffffffffffff1673ffffffffffffffffffffffffffffffffffffffff168152602001828103825284818151815260200191508051906020019080838360005b83811015610753578082015181840152602081019050610738565b50505050905090810190601f1680156107805780820380516001836020036101000a031916815260200191505b5094505050505060206040518083038186803b15801561079f57600080fd5b505afa1580156107b3573d6000803e3d6000fd5b505050506040513d60208110156107c957600080fd5b810190808051906020019092919050505090508061084f576040517f08c379a000000000000000000000000000000000000000000000000000000000815260040180806020018281038252600c8152602001807f556e617574686f72697a6564000000000000000000000000000000000000000081525060200191505060405180910390fd5b83600581111561085b57fe5b6002600087815260200190815260200160002060010160016101000a81548160ff0219169083600581111561088c57fe5b0217905550847f3cf28009f84f5f184138019eb1ddcc7aa6499a65d9ec7aebebed6994ad79df3560405160405180910390a25050505050565b600060606000806108d4610acf565b60026000878152602001908152602001600020604051806060016040529081600082018054600181600116156101000203166002900480601f01602080910402602001604051908101604052809291908181526020018280546001816001161561010002031660029004801561098b5780601f106109605761010080835404028352916020019161098b565b820191906000526020600020905b81548152906001019060200180831161096e57829003601f168201915b505050505081526020016001820160009054906101000a900460ff1660058111156109b257fe5b60058111156109bd57fe5b81526020016001820160019054906101000a900460ff1660058111156109df57fe5b60058111156109ea57fe5b81525050905085816000015182602001516005811115610a0657fe5b83604001516005811115610a1657fe5b8292509450945094509450509193509193565b600160009054906101000a900473ffffffffffffffffffffffffffffffffffffffff1681565b828054600181600116156101000203166002900490600052602060002090601f016020900481019282601f10610a9057805160ff1916838001178555610abe565b82800160010185558215610abe579182015b82811115610abd578251825591602001919060010190610aa2565b5b509050610acb9190610b06565b5090565b60405180606001604052806060815260200160006005811115610aee57fe5b815260200160006005811115610b0057fe5b81525090565b610b2891905b80821115610b24576000816000905550600101610b0c565b5090565b9056fea265627a7a72315820d790878c213ce7ab81735f0c7d01c10e53460583dc1fd79c0227823947c1890864736f6c63430005100032",
  "source": "pragma solidity >=0.5.16;\n\nimport \"./BaseManager.sol\";\nimport \"./interfaces/CarInterface.sol\";\n\n\ncontract CarManager is BaseManager {\n    string constant ADD_CAR_METHOD = \"addCar(bytes,string,uint256)\";\n    string constant UPDATE_CAR_METHOD = \"updateCarState(bytes,uint256)\";\n    /*\n     * At the moment this state adds nothing to the contract - it doesn't give the users relevant information,\n     * and it doesn't modify functions. We must update this to include relevant information or remove it.\n     */\n    enum CarState {\n        SHIPPED,\n        FOR_SALE,\n        PROCESSING_SALE,\n        SOLD,\n        PROCESSING_REGISTER,\n        REGISTERED\n    }\n\n    /*\n     * Permit type or car type is related to the ITV - inspection intervals are determined by this variable\n     * We must look into the `legal` types of vehicles and permits\n     */\n    enum CarType {\n        TWO_WHEEL,\n        THREE_WHEEL,\n        FOUR_WHEEL,\n        HEAVY,\n        AGRICULTURE,\n        SERVICE\n    }\n\n    struct Car {\n        string licensePlate;\n        CarType carType;\n        CarState carState;\n    }\n\n    mapping(uint256 => Car) trackedCars;\n    uint256[] registeredCars;\n\n    event CarAdded(uint256 indexed carID); // probably we need carOwner's address in the event\n    event CarStateUpdated(uint256 indexed carID);\n    event ITVInspection(uint256 indexed carID);\n\n    constructor(address authorizerContractAddress)\n        public\n        BaseManager(authorizerContractAddress)\n    {}\n\n    function addCar(\n        string calldata carId,\n        string calldata licensePlate,\n        uint256 carTypeIndex\n    ) external onlyAuthorized(ADD_CAR_METHOD, msg.sender) {\n        uint256 id = uint256(keccak256(abi.encode(carId)));\n\n        trackedCars[id] = Car({\n            licensePlate: licensePlate,\n            carType: CarType(carTypeIndex),\n            carState: CarState.FOR_SALE\n        });\n\n        emit CarAdded(id);\n    }\n\n    function updateCarState(uint256 id, uint256 carStateIndex)\n        external\n        onlyAuthorized(UPDATE_CAR_METHOD, msg.sender)\n    {\n        trackedCars[id].carState = CarState(carStateIndex);\n\n        emit CarStateUpdated(id);\n    }\n\n    function getCar(uint256 carId)\n        external\n        view\n        returns (\n            uint256 ID,\n            string memory licensePlate,\n            uint256 carType,\n            uint256 carState\n        )\n    {\n        Car memory car = trackedCars[carId];\n\n        return (\n            carId,\n            car.licensePlate,\n            uint256(car.carType),\n            uint256(car.carState)\n        );\n    }\n}\n",
  "sourcePath": "/home/rekard0/Documents/WORK/project_master/car-chain/flutter-app/carchain/contracts/CarManager.sol",
  "compiler": {
    "name": "solc",
    "version": "0.5.16+commit.9c3226ce.Emscripten.clang"
  },
  "schemaVersion": "3.2.3",
  "updatedAt": "2020-09-06T15:38:00.101Z",
  "networkType": "ethereum",
  "devdoc": {
    "methods": {}
  },
  "userdoc": {
    "methods": {}
  }
}