{
  "contractName": "ITVManager",
  "abi": [
    {
      "inputs": [
        {
          "internalType": "address",
          "name": "authorizerContractAddress",
          "type": "address"
        },
        {
          "internalType": "address",
          "name": "carAssetContractAddress",
          "type": "address"
        }
      ],
      "stateMutability": "nonpayable",
      "type": "constructor"
    },
    {
      "anonymous": false,
      "inputs": [
        {
          "indexed": false,
          "internalType": "uint256",
          "name": "carID",
          "type": "uint256"
        },
        {
          "indexed": false,
          "internalType": "enum ITVManager.ITVState",
          "name": "state",
          "type": "uint8"
        }
      ],
      "name": "ITVInspectionEvent",
      "type": "event"
    },
    {
      "inputs": [],
      "name": "carToken",
      "outputs": [
        {
          "internalType": "contract ICarAsset",
          "name": "",
          "type": "address"
        }
      ],
      "stateMutability": "view",
      "type": "function",
      "constant": true
    },
    {
      "inputs": [],
      "name": "owner",
      "outputs": [
        {
          "internalType": "address",
          "name": "",
          "type": "address"
        }
      ],
      "stateMutability": "view",
      "type": "function",
      "constant": true
    },
    {
      "inputs": [
        {
          "internalType": "uint256",
          "name": "carId",
          "type": "uint256"
        },
        {
          "internalType": "enum ITVManager.ITVState",
          "name": "itvStateIndex",
          "type": "uint8"
        }
      ],
      "name": "updateITV",
      "outputs": [],
      "stateMutability": "nonpayable",
      "type": "function"
    }
  ],
  "bytecode": "0x608060405234801561001057600080fd5b506040516105c93803806105c98339818101604052604081101561003357600080fd5b810190808051906020019092919080519060200190929190505050818133600260006101000a81548173ffffffffffffffffffffffffffffffffffffffff021916908373ffffffffffffffffffffffffffffffffffffffff160217905550816000806101000a81548173ffffffffffffffffffffffffffffffffffffffff021916908373ffffffffffffffffffffffffffffffffffffffff16021790555080600160006101000a81548173ffffffffffffffffffffffffffffffffffffffff021916908373ffffffffffffffffffffffffffffffffffffffff160217905550505050506104a4806101256000396000f3fe608060405234801561001057600080fd5b50600436106100415760003560e01c8063592d8e63146100465780638da5cb5b14610081578063d530bf33146100cb575b600080fd5b61007f6004803603604081101561005c57600080fd5b8101908080359060200190929190803560ff169060200190929190505050610115565b005b610089610422565b604051808273ffffffffffffffffffffffffffffffffffffffff1673ffffffffffffffffffffffffffffffffffffffff16815260200191505060405180910390f35b6100d3610448565b604051808273ffffffffffffffffffffffffffffffffffffffff1673ffffffffffffffffffffffffffffffffffffffff16815260200191505060405180910390f35b6040518060400160405280601a81526020017f7570646174654954562875696e743235362c75696e74323536290000000000008152503360008060009054906101000a900473ffffffffffffffffffffffffffffffffffffffff1673ffffffffffffffffffffffffffffffffffffffff1663a14a68d33085856040518463ffffffff1660e01b8152600401808473ffffffffffffffffffffffffffffffffffffffff1673ffffffffffffffffffffffffffffffffffffffff168152602001806020018373ffffffffffffffffffffffffffffffffffffffff1673ffffffffffffffffffffffffffffffffffffffff168152602001828103825284818151815260200191508051906020019080838360005b83811015610241578082015181840152602081019050610226565b50505050905090810190601f16801561026e5780820380516001836020036101000a031916815260200191505b5094505050505060206040518083038186803b15801561028d57600080fd5b505afa1580156102a1573d6000803e3d6000fd5b505050506040513d60208110156102b757600080fd5b810190808051906020019092919050505090508061033d576040517f08c379a000000000000000000000000000000000000000000000000000000000815260040180806020018281038252600c8152602001807f556e617574686f72697a6564000000000000000000000000000000000000000081525060200191505060405180910390fd5b60036000868152602001908152602001600020604051806040016040528086600281111561036757fe5b815260200142815250908060018154018082558091505060019003906000526020600020906002020160009091909190915060008201518160000160006101000a81548160ff021916908360028111156103bd57fe5b02179055506020820151816001015550507f817b4362f0d8ae5bacc61027db96b810feac7b953e33679c3d1979e46d8c494585856040518083815260200182600281111561040757fe5b60ff1681526020019250505060405180910390a15050505050565b600260009054906101000a900473ffffffffffffffffffffffffffffffffffffffff1681565b600160009054906101000a900473ffffffffffffffffffffffffffffffffffffffff168156fea26469706673582212202cf077546576994a80ab9c7a541ef1fe9fce1b459423faa074fc3b8d1e7994d964736f6c63430006060033",
  "immutableReferences": {},
  "source": "pragma solidity >=0.4.21 <0.7.0;\n\nimport \"./interfaces/CarInterface.sol\";\nimport \"./BaseManager.sol\";\n\n\ncontract ITVManager  is BaseManager {\n    string constant UPDATE_METHOD = 'updateITV(uint256,uint256)';\n\n    enum ITVState {PASSED, NOT_PASSED, NEGATIVE}\n\n    struct ITVInspection {\n        ITVState state;\n        uint256 date;\n    }\n\n    mapping(uint256 => ITVInspection[]) ITVs;\n\n    event ITVInspectionEvent(uint256 carID, ITVState state);\n\n    constructor(\n        address authorizerContractAddress,\n        address carAssetContractAddress\n    ) BaseManager(authorizerContractAddress, carAssetContractAddress) public {}\n\n    function updateITV(uint256 carId, ITVState itvStateIndex) \n        public\n        onlyAuthorized (UPDATE_METHOD, msg.sender)\n    {\n        ITVs[carId].push(\n            ITVInspection(itvStateIndex, now)\n        );\n        \n        emit ITVInspectionEvent(carId, itvStateIndex);\n    }\n\n}\n",
  "sourcePath": "/home/rekard0/Documents/WORK/project_master/car-chain/flutter-app/carchain/contracts/ITVManager.sol",
  "compiler": {
    "name": "solc",
    "version": "0.6.6+commit.6c089d02.Emscripten.clang"
  },
  "schemaVersion": "3.2.5",
  "updatedAt": "2020-09-26T02:17:08.956Z",
  "networkType": "ethereum",
  "devdoc": {
    "methods": {}
  },
  "userdoc": {
    "methods": {}
  }
}