{
  "contractName": "ITVManager",
  "abi": [
    {
      "inputs": [
        {
          "internalType": "address",
          "name": "authorizerContractAddress",
          "type": "address"
        }
      ],
      "stateMutability": "nonpayable",
      "type": "constructor"
    },
    {
      "anonymous": false,
      "inputs": [
        {
          "indexed": false,
          "internalType": "uint256",
          "name": "carID",
          "type": "uint256"
        },
        {
          "indexed": false,
          "internalType": "enum ITVManager.ITVState",
          "name": "state",
          "type": "uint8"
        }
      ],
      "name": "ITVInspectionEvent",
      "type": "event"
    },
    {
      "inputs": [],
      "name": "owner",
      "outputs": [
        {
          "internalType": "address",
          "name": "",
          "type": "address"
        }
      ],
      "stateMutability": "view",
      "type": "function",
      "constant": true
    },
    {
      "inputs": [
        {
          "internalType": "uint256",
          "name": "carId",
          "type": "uint256"
        },
        {
          "internalType": "enum ITVManager.ITVState",
          "name": "itvStateIndex",
          "type": "uint8"
        }
      ],
      "name": "updateITV",
      "outputs": [],
      "stateMutability": "nonpayable",
      "type": "function"
    }
  ],
  "bytecode": "0x608060405234801561001057600080fd5b506040516105003803806105008339818101604052602081101561003357600080fd5b81019080805190602001909291905050508033600160006101000a81548173ffffffffffffffffffffffffffffffffffffffff021916908373ffffffffffffffffffffffffffffffffffffffff160217905550806000806101000a81548173ffffffffffffffffffffffffffffffffffffffff021916908373ffffffffffffffffffffffffffffffffffffffff1602179055505050610429806100d76000396000f3fe608060405234801561001057600080fd5b50600436106100365760003560e01c8063592d8e631461003b5780638da5cb5b14610076575b600080fd5b6100746004803603604081101561005157600080fd5b8101908080359060200190929190803560ff1690602001909291905050506100c0565b005b61007e6103cd565b604051808273ffffffffffffffffffffffffffffffffffffffff1673ffffffffffffffffffffffffffffffffffffffff16815260200191505060405180910390f35b6040518060400160405280601a81526020017f7570646174654954562875696e743235362c75696e74323536290000000000008152503360008060009054906101000a900473ffffffffffffffffffffffffffffffffffffffff1673ffffffffffffffffffffffffffffffffffffffff1663a14a68d33085856040518463ffffffff1660e01b8152600401808473ffffffffffffffffffffffffffffffffffffffff1673ffffffffffffffffffffffffffffffffffffffff168152602001806020018373ffffffffffffffffffffffffffffffffffffffff1673ffffffffffffffffffffffffffffffffffffffff168152602001828103825284818151815260200191508051906020019080838360005b838110156101ec5780820151818401526020810190506101d1565b50505050905090810190601f1680156102195780820380516001836020036101000a031916815260200191505b5094505050505060206040518083038186803b15801561023857600080fd5b505afa15801561024c573d6000803e3d6000fd5b505050506040513d602081101561026257600080fd5b81019080805190602001909291905050509050806102e8576040517f08c379a000000000000000000000000000000000000000000000000000000000815260040180806020018281038252600c8152602001807f556e617574686f72697a6564000000000000000000000000000000000000000081525060200191505060405180910390fd5b60026000868152602001908152602001600020604051806040016040528086600281111561031257fe5b815260200142815250908060018154018082558091505060019003906000526020600020906002020160009091909190915060008201518160000160006101000a81548160ff0219169083600281111561036857fe5b02179055506020820151816001015550507f817b4362f0d8ae5bacc61027db96b810feac7b953e33679c3d1979e46d8c49458585604051808381526020018260028111156103b257fe5b60ff1681526020019250505060405180910390a15050505050565b600160009054906101000a900473ffffffffffffffffffffffffffffffffffffffff168156fea26469706673582212207e10693ea4eed35bfe652f85a4c3f4c2df908d65e5d8dc90e249122539cd2db464736f6c63430006060033",
  "immutableReferences": {},
  "source": "pragma solidity >=0.4.21 <0.7.0;\n\nimport \"./interfaces/CarInterface.sol\";\nimport \"./BaseManager.sol\";\n\n\ncontract ITVManager is BaseManager {\n    string constant UPDATE_METHOD = \"updateITV(uint256,uint256)\";\n\n    enum ITVState {PASSED, NOT_PASSED, NEGATIVE}\n\n    struct ITVInspection {\n        ITVState state;\n        uint256 date;\n    }\n\n    mapping(uint256 => ITVInspection[]) ITVs;\n\n    event ITVInspectionEvent(uint256 carID, ITVState state);\n\n    constructor(address authorizerContractAddress)\n        public\n        BaseManager(authorizerContractAddress)\n    {}\n\n    function updateITV(uint256 carId, ITVState itvStateIndex)\n        public\n        onlyAuthorized(UPDATE_METHOD, msg.sender)\n    {\n        ITVs[carId].push(ITVInspection(itvStateIndex, now));\n\n        emit ITVInspectionEvent(carId, itvStateIndex);\n    }\n}\n",
  "sourcePath": "/home/rekard0/Documents/WORK/project_master/car-chain/flutter-app/carchain/contracts/ITVManager.sol",
  "compiler": {
    "name": "solc",
    "version": "0.6.6+commit.6c089d02.Emscripten.clang"
  },
  "schemaVersion": "3.2.3",
  "updatedAt": "2020-09-12T22:33:06.074Z",
  "networkType": "ethereum",
  "devdoc": {
    "methods": {}
  },
  "userdoc": {
    "methods": {}
  }
}